:020000040800F2
:100000002809002089010008252900087925000811
:100010002129000839030008B92C0008000000005D
:10002000000000000000000000000000552900084A
:10003000510600080000000029290008DD290008F9
:10004000A3010008A3010008A3010008A301000800
:10005000A3010008A3010008A3010008A3010008F0
:10006000A3010008A3010008A3010008A3010008E0
:10007000A3010008A3010008A3010008A3010008D0
:10008000A3010008A3010008A3010008A3010008C0
:10009000A92C0008A3010008A3010008A30100087F
:1000A000492A0008592A0008A3010008A3010008F2
:1000B000692A0008792A0008892A0008A301000893
:1000C000A3010008A3010008A3010008A301000880
:1000D000A3010008A3010008A3010008A301000870
:1000E000A3010008A3010008A301000800F002F822
:1000F00000F03AF80AA090E8000C82448344AAF188
:100100000107DA4501D100F02FF8AFF2090EBAE885
:100110000F0013F0010F18BFFB1A43F0010318473B
:100120002850000048500000103A24BF78C878C119
:10013000FAD8520724BF30C830C144BF04680C60ED
:10014000704700000023002400250026103A28BF35
:1001500078C1FBD8520728BF30C148BF0B60704739
:100160001FB51FBD10B510BD00F06CF81146FFF7AC
:10017000F7FF03F0EFFB00F08AF803B4FFF7F2FF9C
:1001800003BC00F08DF8000009488047094800478B
:10019000FEE7FEE7FEE7FEE7FEE7FEE7FEE7FEE737
:1001A000FEE7FEE704480549054A064B7047000094
:1001B000472A0008ED000008280300202809002035
:1001C00028050020280500204FF0000200B5134646
:1001D00094469646203922BFA0E80C50A0E80C5067
:1001E000B1F12001BFF4F7AF090728BFA0E80C5018
:1001F00048BF0CC05DF804EB890028BF40F8042B11
:1002000008BF704748BF20F8022B11F0804F18BF7D
:1002100000F8012B704770477047704710B500F029
:1002200009F8006810BD10B5044600F003F804603A
:1002300010BD000000487047C80200200048704709
:10024000C80200207546FFF7F9FFAE460500694673
:10025000534620F00700854618B020B5FFF7A2FFEF
:10026000BDE820404FF000064FF000074FF00008B7
:100270004FF0000B21F00701AC46ACE8C009ACE838
:10028000C009ACE8C009ACE8C0098D46704710B59C
:100290000446AFF300802046BDE81040FFF76DBF75
:1002A00001491820ABBEFEE726000200704700009F
:1002B00070B504460D4624B1012C13D0022C33D165
:1002C00021E001221021194801F0D2F80022082172
:1002D000164801F0CDF8284604F006FC14490968D8
:1002E000C86321E001220821124801F0C1F8002270
:1002F0000421104801F0BCF8284604F0F5FB0C4935
:100300000968486310E0012210210A4801F0B0F8A2
:1003100000222021074801F0ABF8284604F0E4FB56
:1003200003490968886300BF00BF70BD000C01402D
:10033000AC0000200008014000BFFEE770B5044695
:100340000D460B48046000200949C86088600846D3
:100350000561084B084A094800F0D7F908B100F0D8
:1003600078F900BF054800F0BEFB0328FAD170BD44
:10037000CC0100200C000020100000208400002090
:100380002DE9F14F86B09B4801684FF0804004F0A2
:100390002BFC064604F030FA82468B4696480068ED
:1003A00004F02AFA8046954A954B03F04BFF064627
:1003B000924A934B03F046FFCDE902019148006851
:1003C00004F01AFA06468D4A8F4B03F03BFFCDE945
:1003D0000001DDE9022303F0D3FC52465B46CDE980
:1003E000040103F0CDFC044603F098FC8749086043
:1003F000844801684FF0804004F0F6FB064604F0A4
:10040000FBF904467D4A7E4B03F01CFFCDE9040155
:10041000784801684FF0814004F0E6FB064604F09E
:10042000EBF904460D467448006804F0E5F980468F
:10043000724A734B03F006FF0646704A704B03F096
:1004400001FF22462B46CDE9000104F0EBF8CDE98F
:100450000201DDE9042304F0E5F8824603F05EFCC6
:100460006B490860634801684FF0804004F0BCFBB2
:100470006849086000BF6848007800B9ACE0002017
:1004800003F0A2FB00B265490880B1F9000004F056
:100490004BFB0546624904F0A7FB0446614904F0A2
:1004A00045FA6149086008460168069804F09AFC1C
:1004B0005E4908605E49086804F09EF980464F4A2C
:1004C000514B03F0BFFE82468B465A4801685148A3
:1004D000006804F089FB0390574801684C480068A5
:1004E00004F082FB0290514801684848006804F01B
:1004F0007BFB0190029904F0ABF98146039904F06B
:10050000A7F9804604F078F952465B46CDE904012C
:1005100003F036FC0646394A3B4B03F0E1FC044647
:1005200003F0FCFB45490860084600684049086044
:10053000414800683F4908603C4800683E490860FF
:100540003E4908683E4904F01BFC03D23C483B4945
:10055000086008E0394908683A4904F011FB02D202
:10056000384836490860002424E0344908680021EE
:1005700004F006FC05D2314AE0B2116800F06CF8D4
:1005800017E02E490868002104F0FAFA0ED22B4930
:10059000086804F031F921F00041064603F0BEFB83
:1005A0000546E0B22946FFF783FE02E0E0B202F022
:1005B000D3F9641C032CD8DB0A2000F0B5FD1B49DD
:1005C0000868214904F0DCFBFFF455AF17490868BF
:1005D0001E4904F0D5FAF7D300BF0020044604E01A
:1005E000E0B202F0B9F9601C0446032CF8DB07B056
:1005F000BDE8F08F48000020440000207B14AE4787
:10060000E17A843F40000020E17A943F4C000020D2
:10061000500000205400002021000020380000205D
:100620000000B4430080C0442802002038020020AB
:100630006802002050020020440200205C020020DA
:1006400000004842000048C200004040000040C096
:10065000704772B600BFFEE770B504460D4624B180
:10066000012C13D0022C33D121E000221021194893
:1006700000F0FEFE01220821164800F0F9FE28468F
:1006800004F032FA14490968C86321E00022082105
:10069000124800F0EDFE01220421104800F0E8FEAF
:1006A000284604F021FA0C490968486310E000224A
:1006B00010210A4800F0DCFE01222021074800F04A
:1006C000D7FE284604F010FA03490968886300BF82
:1006D00000BF70BD000C0140AC00002000080140CC
:1006E00010B5024692F82030012B01D0022B06D122
:1006F00010684069084314686061002010BD506AAA
:1007000040F4802050620120F8E7F0B504460D4621
:100710001E4694F8207020688368A86800B900E03D
:1007200000BF012F01D0022F7CD103F0806030B9CF
:1007300003F0006018B903F08050002873D0C3F3B1
:100740000161022905D9606A40F40000606201205D
:10075000F0BD012088403060A86860B9B5F800C0DD
:10076000E86840EA4C5C206800F5C07000EB0110BE
:10077000C0F800C00FE0D5E901C040EACC00D5F8D0
:100780000CC040EA0C00D4F800C00CF5C07C0CEBA7
:10079000011CCCF80000D5F810C0206800F5C0702E
:1007A00000EB0110C0F804C0287D01280ED120689C
:1007B00000F5C07000EB0110406840F4807C2068B8
:1007C00000F5C07000EB0110C0F804C0D07900063D
:1007D00092F806C040EA0C4092F805C040EA0C2CA2
:1007E00010794CEA000C206800F5C07000EB011095
:1007F000C0F80CC0D078000692F802C040EA0C4065
:1008000092F801C040EA0C2092F800C040EA0C00C7
:10081000D4F800C00CF5C07C0CEB011CCCF808002F
:10082000206801E016E00FE000F5C07000EB011059
:10083000006840F0010C206800F5C07000EB01106A
:10084000C0F800C0002083E7606A40F400106062D6
:1008500001207DE7606A40F480206062012077E734
:10086000F0B504460A46216894F82050012D01D0C5
:10087000022D74D1D1F8000240F00100C1F800024D
:10088000107D00F01F06012000FA06F3D1F81C02CB
:100890009843C1F81C02D069C8B9D1F80C0298433A
:1008A000C1F80C02908880B2968940EA064601F5AC
:1008B0001070576940F83760108880B2168940EA96
:1008C000064601F51070576900EBC7004660D06915
:1008D000012819D1D1F80C021843C1F80C029088F4
:1008E00080B2168840EA064601F51070576940F854
:1008F0003760908980B2168940EA064601F510708B
:10090000576900EBC7004660906928B9D1F8040226
:100910009843C1F8040204E0D1F804021843C1F876
:100920000402106928B9D1F814029843C1F81402DE
:1009300004E0D1F814021843C1F81402106A012827
:1009400004D1D1F81C021843C1F81C02D1F80002EE
:1009500020F00100C1F800020020F0BDFFE7606A4E
:1009600040F4802060620120F7E7704770B50446CC
:1009700094F82050012D01D0022D7DD151B920686D
:10098000C06800F0030080B9606A40F40010606243
:10099000012070BD2068006900F0030028B9606A7A
:1009A00040F4001060620120F3E7206800F5D87081
:1009B00000EB0110006800F004009060906840B9FE
:1009C000206800F5D87000EB01100068400D106041
:1009D00007E0206800F5D87000EB01100068C0083F
:1009E0005060206800F5D87000EB0110006800F03E
:1009F0000200D060206800F5D87000EB011040685C
:100A000000F00F001061206800F5D87000EB0110B5
:100A1000406800F47F40000A9061206800F5D870BB
:100A200000EB01104068000C5061206800F5D870A0
:100A300000EB011080681870206800F5D87000EB9A
:100A40000110806800F47F40000A5870206800F5AB
:100A5000D87000EB0110806800F47F00000C9870E3
:100A6000206800F5D87000EB01108068000ED87087
:100A7000206800F5D87000E02FE000EB0110C0689E
:100A80001871206800F5D87000EB0110C06800F400
:100A90007F40000A5871206800F5D87000EB011003
:100AA000C06800F47F00000C9871206800F5D870D1
:100AB00000EB0110C068000ED87131B92068C06821
:100AC00040F020002668F06005E02068006940F0F2
:100AD00020002668306100205BE7606A40F48020D7
:100AE0006062012055E70146002091F82020012A8C
:100AF00001D0022A11D10B689B6803F0806303B117
:100B0000401C0B689B6803F0006303B1401C0B683A
:100B10009B6803F0805303B1401C70472DE9F05FE0
:100B200004460025206846692068D0F804902068B3
:100B300087682068D0F80CA02068D0F810B0206832
:100B4000D0F8188006F00100002855D007F0010009
:100B5000C0B101202168886007F0020018B120466A
:100B600000F0DBFA0EE007F0040010B145F4006578
:100B700008E007F0080010B145F4805502E0204677
:100B800000F0CAFA07F48070C8B14FF48070216891
:100B9000886007F4007018B1204600F0C0FA0EE03B
:100BA00007F4806010B145F4005508E007F40060D8
:100BB00010B145F4804502E0204600F0AFFA07F49A
:100BC0008030C8B14FF480302168886007F400306D
:100BD00018B1204600F0A5FA0EE007F4802010B10D
:100BE00045F4004508E007F4002010B145F48035D5
:100BF00002E0204600F094FA06F0080038B10AF04E
:100C0000100020B145F4007510202168C86006F07E
:100C1000040040B10AF0080028B108202168C8602B
:100C2000204600F0A9F906F0020038B12068C0683B
:100C300000F0030010B1204600F0A0F906F04000DB
:100C400038B10BF0100020B145F480651020216808
:100C5000086106F0200040B10BF0080028B1082020
:100C600021680861204600F025FA06F0100038B12E
:100C70002068006900F0030010B1204600F01BFA64
:100C800006F4003040B109F0100028B110202168AE
:100C90004860204600F010FA06F4803040B109F0B8
:100CA000080028B1082021684860204600F03AFA80
:100CB00006F4004088B309F0040078B306F48070AD
:100CC00020B108F0010008B145F0010506F40070FC
:100CD00020B108F0020008B145F0020506F480607A
:100CE00020B108F0040008B145F0040506F40060E6
:100CF000A0B108F0700088B108F07000402817D04B
:100D000006DC10280BD020280CD0302819D10CE09C
:100D1000502810D0602814D110E01DE019E045F0F3
:100D200008050FE045F010050CE045F0200509E04E
:100D300045F0400506E045F0800503E045F4807588
:100D400000E000BF00BF2068806920F070002168CB
:100D500088610420216848602DB1606A2843606280
:100D60002046FFF702FEBDE8F09F70B504460CB9BF
:100D7000012070BD94F8200010B9204600F0B0F8B2
:100D80002068006840F001002168086000F076FBF0
:100D900005460DE000F072FB401B0A2808D9606A86
:100DA00040F400306062052084F820000120E0E774
:100DB0002068406800F001000028EBD0206800683F
:100DC00020F002002168086000F058FB05460DE0A5
:100DD00000F054FB401B0A2808D9606A40F4003038
:100DE0006062052084F820000120C2E72068406886
:100DF00000F002000028EBD1207E012806D12068F7
:100E0000006840F080002168086005E02068006804
:100E100020F0800021680860607E012806D12068EB
:100E2000006840F040002168086005E02068006824
:100E300020F0400021680860A07E012806D12068CB
:100E4000006840F020002168086005E02068006824
:100E500020F0200021680860E07E012806D120688B
:100E6000006820F010002168086005E02068006834
:100E700040F0100021680860207F012806D120681A
:100E8000006840F008002168086005E020680068FC
:100E900020F0080021680860607F012806D12068E2
:100EA000006840F004002168086005E020680068E0
:100EB00020F0040021680860D4E902010843216998
:100EC0000843616908436168491E08432168C86195
:100ED00000206062012084F82000002049E7000023
:100EE00010B586B00446002002900390049005904F
:100EF0001E492068884237D100BF1D48C06940F0B4
:100F000000701B49C8610846C06900F0007001907C
:100F100000BF00BF00BF0846806940F00400886140
:100F20000846806900F00400019000BF00BFC814AB
:100F30000290002003900120049002A90D4800F0C7
:100F400007F94FF48050029002200390032005908F
:100F500002A9084800F0FCF800221146142000F015
:100F600013FB142000F000FB06B010BD006400402D
:100F700000100240000801407047000010B5044610
:100F800003203B4908703B4B3B4A00212046FFF7BA
:100F9000EDFC00286AD10220354908703648006807
:100FA00036490988884216D1324800780A2812D179
:100FB00001202F4908700A20314908700121314869
:100FC0000088FFF7BBF901202F4908700022410378
:100FD0002E4800F04DFA284800682D4909888842BB
:100FE00013D1244800780A280FD122484078294993
:100FF000087020488078284908700A202049087025
:10100000012126480088FFF799F91B480068244908
:10101000098888422AD1174800780A2826D115481D
:1010200080781449497840EA012000B21D490880BF
:10103000104800790F49C97840EA012000B21A49E6
:1010400008800C4880790B49497940EA012017490A
:1010500008800A200A490870012110480088FFF71B
:101060006DF913480088401C1149088010BD00002C
:101070002300002018000020E401002002000020CE
:10108000100000200000002020000020001001407F
:10109000060000202100002022000020080000207F
:1010A00004000020240000202A0000202E00002040
:1010B0003200002070477047704770B5044694F8BE
:1010C0002000012822D1022084F820002068006836
:1010D00020F001002168086000F0D0F905460DE01D
:1010E00000F0CCF9401B0A2808D9606A40F40030AF
:1010F0006062052084F82000012070BD20684068EF
:1011000000F001000028EBD16062F6E7606A40F46D
:10111000002060620120F0E7704770477047704719
:10112000704770477047000070B5044600F0A6F99C
:1011300006462546681C10B104480078054400BFE7
:1011400000F09CF9801BA842FAD370BD7C000020FF
:101150002DE9F8470346002294466EE14FF001085E
:1011600008FA02F4D1F8008008EA0400A0427DD118
:10117000DFF8DCA2D1F80480A8EB0A09D0453AD008
:1011800014DCB8F1030F50D009DCB8F1000F31D0F6
:10119000B8F1010F1CD0B8F1020F49D120E0B8F12D
:1011A000110F18D0B8F1120F42D11EE0B9F5881F07
:1011B00025D006DCB9F5803F20D0B9F5801F37D1A6
:1011C0001AE0B9F5001F18D0B9F5041F30D117E0A7
:1011D000D1F80CC02DE0D1F80C8008F1040C28E007
:1011E000D1F80C8008F1080C23E0D1F80C8008F14C
:1011F0000C0C1EE000BF00BF00BF00BF00BF00BF5F
:10120000D1F80880B8F1000F02D14FF0040C0BE0C8
:10121000D1F80880B8F1010F03D14FF0080C1C6120
:1012200002E04FF0080C5C6103E04FF0000C00E0BE
:1012300000BF00BFFF2801D8984601E003F1040871
:101240004646FF2802D84FEA820803E0A2F10808C8
:101250004FEA88084746D6F800804FF00F0909FA90
:1012600007F928EA09080CFA07F900E088E048EADB
:101270000908C6F80080D1F8048008F08058B8F159
:10128000805F7DD100BFDFF8CC81D8F8188048F0AE
:101290000108DFF8C091C9F81880C846D8F818804E
:1012A00008F00108CDF8008000BF00BF4FEAB93850
:1012B0004FEA920958F829504FEA82784FEA187994
:1012C0004FF00F0808FA09F825EA0805DFF88881C9
:1012D000434502D14FF0000816E0DFF88081434516
:1012E00002D14FF001080FE0DFF87481434502D1CD
:1012F0004FF0020808E0DFF86C81434502D14FF05F
:10130000030801E04FF004084FEA82794FEA1979A7
:1013100008FA09F848EA0505DFF84C814FEA920916
:1013200048F82950D1F8048008F48038B8F5803F97
:101330000AD1DFF83881D8F8008048EA0008DFF8E1
:101340002C91C9F8008009E0DFF82081D8F80080EE
:1013500028EA0008DFF81491C9F80080D1F8048069
:1013600008F40038B8F5003F10D1DFF8008108F12B
:101370000408D8F8008048EA0008DFF8F09000E0A0
:101380005AE009F10409C9F800800DE0DFF8DC80BB
:1013900008F10408D8F8008028EA0008DFF8CC90AB
:1013A00009F10409C9F80080D1F8048008F4801814
:1013B000B8F5801F0ED1DFF8B48008F10808D8F81E
:1013C000008048EA0008DFF8A49009F10809C9F88C
:1013D00000800DE0DFF8948008F10808D8F800805C
:1013E00028EA0008DFF8849009F10809C9F80080AC
:1013F000D1F8048008F40018B8F5001F0ED1DFF80A
:101400006C8008F10C08D8F8008048EA0008DFF882
:101410005C9009F10C09C9F800800DE0DFF84C8000
:1014200008F10C08D8F8008028EA0008DFF83C90A2
:1014300009F10C09C9F80080521CD1F8008028FA83
:1014400002F8B8F1000F7FF489AEBDE8F88700001C
:10145000000011100010024000080140000C014083
:101460000010014000140140080001400004014048
:101470000AB1016101E00B04036170470148006893
:101480007047000074000020034800680349097891
:101490000844014908607047740000207C00002067
:1014A00010B50848006840F01000064908600320A5
:1014B00000F0A8F80F2000F007F800F02BF800204B
:1014C00010BD00000020024070B504460E480078B0
:1014D0004FF47A71B1FBF0F00C490968B1FBF0F5FB
:1014E000284600F0E5FB08B1012070BD102C07D2A2
:1014F00000222146501E00F047F80548046001E034
:101500000120F2E70020F0E77C00002080000020AE
:101510007800002008B500BF1148806940F0010044
:101520000F4988610846806900F00100009000BF03
:1015300000BF00BF0846C06940F08050C86108463F
:10154000C06900F08050009000BF00BF00BF054997
:10155000486820F0E06040F00070486000BF08BDBF
:10156000001002400000014001460846002809DB47
:1015700000F01F0301229A4043099B0003F1E0237E
:10158000C3F8002100BF70472DE9F05F80460D468B
:101590001646002701F0A6FB074639462A46334681
:1015A00001F00700C0F1070ABAF1040F02D94FF0A9
:1015B000040A01E0C0F1070AD14600F1040ABAF1B9
:1015C000070F02D24FF0000A01E0A0F1030AD4464F
:1015D0004FF0010A0AFA09FAAAF1010A0AEA020A14
:1015E0000AFA0CFA4FF0010B0BFA0CFBABF1010BF2
:1015F0000BEA030B4AEA0B042146404601F07AFB52
:10160000BDE8F09F00BF00F00702064B19684FF6D7
:10161000FF031940044B0B4343EA0221014B1960BD
:1016200000BF70470CED00E00000FA0570B50446FD
:101630000D460CB9012070BD5A48006800F0070043
:10164000A8420ED25748006820F0070028435549A9
:1016500008600846006800F00700A84201D0012099
:10166000E9E7207800F0020002281DD1207800F080
:101670000400042805D14C48406840F4E0604A4921
:101680004860207800F00800082805D146484068E6
:1016900040F46050444948604348406820F0F000FE
:1016A000A168084340494860207800F0010078B301
:1016B0006068012806D13C48006800F4003090B909
:1016C0000120B8E76068022806D13748006800F0BA
:1016D000007040B90120AEE73348006800F0020016
:1016E00008B90120A7E73048406820F0030061688E
:1016F00008432D494860FFF7C1FE064609E0FFF7A1
:10170000BDFE801B41F28831884202D9032092E756
:1017100007E02548406800F00C006168B0EB810FDD
:10172000EDD12048006800F00700A8420ED91D48FE
:10173000006820F0070028431A490860084600683E
:1017400000F00700A84201D0012074E7207800F0E3
:101750000400042807D11448406820F4E060E168E0
:10176000084311494860207800F00800082808D193
:101770000D48406820F46050216940EAC1000A49E0
:10178000486000F019F808494968C1F30311074A95
:10179000515CC8400649086006480068FFF794FE9F
:1017A000002048E70020024000100240BE4F000821
:1017B0008000002078000020F0B585B00FF26C0C9E
:1017C0009CE8E01001A8A0E8E0101CA52D68009599
:1017D00000210022002300240020194D696801F037
:1017E0000C05F5B1042D02D0082D19D101E01548E2
:1017F00019E001ADC1F38346AC5D01F4803555B10C
:101800000F4D6D68C5F340451DF805200D4D65432E
:10181000B5FBF2F302E00C4D04FB05F3184602E0C1
:1018200000BF084800BF00BF05B0F0BD02030405BB
:10183000060708090A0B0C0D0E0F1010010200001C
:101840000010024000127A0000093D00F8B504467D
:101850000CB90120F8BD207800F00100002878D0F4
:10186000F848406800F00C0004280CD0F5484068A7
:1018700000F00C00082811D1F248406800F48030D4
:10188000B0F5803F0AD1EF48006800F4003000282E
:101890005FD0606800285CD10120DBE700BF606892
:1018A000B0F5803F06D1E748006840F48030E54954
:1018B000086028E0606858B9E248006820F4803089
:1018C000E04908600846006820F4802008601AE0BB
:1018D0006068B0F5A02F0BD1DA48006840F4802092
:1018E000D84908600846006840F4803008600AE083
:1018F000D448006820F48030D24908600846006867
:1019000020F48020086000BF606888B1FFF7B6FD52
:10191000054606E0FFF7B2FD401B642801D903200D
:1019200098E7C848006800F400300028F2D010E0C2
:10193000FFF7A4FD054606E0FFF7A0FD401B642865
:1019400001D9032086E7BF48006800F40030002872
:10195000F2D1207800F00200022857D1B94840683F
:1019600000F00C0050B1B748406800F00C000828A7
:1019700018D1B448406800F4803098B9B148006884
:1019800000F0020020B12069012801D0012061E7A8
:10199000AC48006820F0F800616940EAC100A9493C
:1019A000086033E02069E8B10120A7490860FFF72B
:1019B00065FD054606E0FFF761FD401B022801D9E1
:1019C000032047E79F48006800F002000028F2D09B
:1019D0009C48006820F0F800616940EAC10099491C
:1019E000086013E0002098490860FFF747FD0546AE
:1019F00006E0FFF743FD401B022801D9032029E739
:101A00009048006800F002000028F2D1207800F031
:101A1000080008282DD1A069B8B101208B490860C1
:101A2000FFF72CFD054606E0FFF728FD401B0228C6
:101A300001D903200EE78348406A00F00200002825
:101A4000F2D0012000F072FF13E000207F4908600F
:101A5000FFF714FD054606E0FFF710FD401B0228C6
:101A600001D90320F6E67748406A00F0020000281A
:101A7000F2D1207800F00400042873D100277148C7
:101A8000C06900F0805070B900BF6E48C06940F076
:101A900080506C49C8610846C06900F080500090D1
:101AA00000BF00BF01276A48006800F48070B0B929
:101AB0006748006840F4807065490860FFF7DEFC05
:101AC000054606E0FFF7DAFC401B642801D9032035
:101AD000C0E65F48006800F480700028F2D000BFC4
:101AE000E068012806D15748006A40F001005549D6
:101AF000086227E0E06858B95248006A20F0010007
:101B0000504908620846006A20F00400086219E0A3
:101B1000E06805280BD14B48006A40F004004949B1
:101B200008620846006A40F0010008620AE0454881
:101B3000006A20F00100434908620846006A20F06C
:101B40000400086200BFE068A0B1FFF797FC0546FB
:101B500009E0FFF793FC401B41F28831884202D92B
:101B6000032077E622E03748006A00F002000028F0
:101B7000EFD012E0FFF782FC054608E0FFF77EFC9D
:101B8000401B41F28831884201D9032062E62D488A
:101B9000006A00F002000028F0D1012F05D1294889
:101BA000C06920F080502749C86100BFE069C8B310
:101BB0002448406800F00C00082860D0E069022842
:101BC00048D1002020490866FFF758FC054606E08A
:101BD000FFF754FC401B022801D903203AE61948BC
:101BE000006800F000700028F2D1206AB0F5803F54
:101BF00007D11448406820F40030A1680843114917
:101C00004860D4E9080108430E49496821F4741179
:101C100008430C49486001200B490866FFF72EFC79
:101C2000054607E03DE0FFF729FC401B022801D9EB
:101C300003200FE60348006800F000700028F2D08F
:101C40002FE00000001002400000424280044242A7
:101C500000700040002014490866FFF70FFC05469D
:101C600006E0FFF70BFC401B022801D90320F1E539
:101C70000E48006800F000700028F2D111E0E06921
:101C8000012800D1E6E50948466806F48031206A5B
:101C9000814204D106F47011606A814201D00120B2
:101CA000D8E50020D6E500000000424200100240C6
:101CB00070B504462546681EB0F1807F01D301202F
:101CC0000FE0681E4FF0E02148610F214FF0FF3018
:101CD00001F010F800204FF0E02188610720086132
:101CE000002070BD7047704710B50346002200BF4A
:101CF00093F83C00012801D1022010BD012083F897
:101D00003C0000BF22F0FF00CC6840EA040222F44D
:101D100040708C6840EA040222F480604C6840EA1B
:101D2000040222F400600C6840EA040222F48050AD
:101D30000C6940EA040222F400504C6940EA0402B3
:101D400022F48040CC6940EA04021868426400BF73
:101D5000002083F83C0000BF00BFCEE730B502464C
:101D60000B4600BF92F83C00012801D1022030BD93
:101D7000012082F83C0000BF022082F83D0010687C
:101D800044681068816824F070041868044310687F
:101D90004460104D1068A8420BD01068B0F1804F1D
:101DA00007D00D4D1068A84203D00C4D1068A84212
:101DB00005D121F08001586801431068816001203D
:101DC00082F83D0000BF002082F83C0000BF00BF49
:101DD000CDE70000002C0140000400400008004056
:101DE0002DE9F04104460D4614B90120BDE8F0810B
:101DF00094F83D0028B9002084F83C00204600F00B
:101E000051F8022084F83D002068806844F2070100
:101E1000884321688860211D206800F03DFE20680D
:101E2000D0F80880206886692068076A286840EA38
:101E3000080840F203308643A969A86840EA0120F7
:101E4000064340F60C4086434FF2F0008643E969B2
:101E5000E86840EA0120064328690001296A40EA4F
:101E60000130064327F022076969686840EA0110DB
:101E700007432068C0F808802068866120680762F0
:101E8000012084F8460084F83E0001213F200155DE
:101E9000012084F8420043200155012084F83D00D0
:101EA0000020A3E710B586B00446002002900390FE
:101EB000049005902068B0F1804F2DD100BF4948B3
:101EC000C06940F001004749C8610846C06900F098
:101ED0000100019000BF00BF00BF0846806940F0CC
:101EE000040088610846806900F00400019000BF8A
:101EF00000BF03200290002003900120049002A95B
:101F00003948FFF725F9002211461C20FFF73CFB5A
:101F10001C20FFF729FB62E03449206888422DD15C
:101F200000BF3048C06940F002002E49C861084631
:101F3000C06900F00200019000BF00BF00BF08466A
:101F4000806940F0040088610846806900F0040060
:101F5000019000BF00BFC02002900020039001202C
:101F6000049002A92048FFF7F3F8002211461D2033
:101F7000FFF70AFB1D20FFF7F7FA30E01C49206845
:101F800088422CD100BF1748C06940F004001549B1
:101F9000C8610846C06900F00400019000BF00BF9E
:101FA00000BF0846806940F00800886108468069E3
:101FB00000F00800019000BF00BFC0200290002088
:101FC00003900120049002A90A48FFF7C1F80022FB
:101FD00011461E20FFF7D8FA1E20FFF7C5FA06B0FB
:101FE00010BD000000100240000801400004004045
:101FF00000080040000C01402DE9F04304460D4666
:1020000094F83E603F20075D94F84280432010F82A
:1020100004906DB9012E02D1B8F1010F02D0012058
:10202000BDE8F083022084F83E0084F8420025E0F9
:10203000042D0CD1012F02D1B9F1010F01D00120E3
:10204000EEE702213F2001554320015516E0012E05
:1020500007D1012F05D1B8F1010F02D1B9F1010F5C
:1020600001D00120DCE7022084F83E0002213F205D
:102070000155022084F842004320015515B1042D7A
:1020800018D10BE001220021206800F03FFD2068FC
:10209000C06840F002002168C86022E001220421EB
:1020A000206800F033FD2068C06840F0040021681B
:1020B000C86016E001220021206800F027FD0122FF
:1020C0000421206800F022FD2068C06840F0020072
:1020D0002168C8602068C06840F004002168C860BA
:1020E00000BF00BF2068006840F001002168086060
:1020F000002095E7704710B5044620680069C0F3DA
:102100004000D8B12068C068C0F34000B0B16FF0A3
:10211000020021680861012020772068806900F0B2
:10212000030018B12046FFF7E5FF05E0204600F068
:10213000D9F8204600F0B2F9002020772068006925
:10214000C0F38000D8B12068C068C0F38000B0B18F
:102150006FF0040021680861022020772068806900
:1021600000F4407018B12046FFF7C4FF05E0204698
:1021700000F0B8F8204600F091F9002020772068A0
:102180000069C0F3C000D8B12068C068C0F3C000C7
:10219000B0B16FF008002168086104202077206842
:1021A000C06900F0030018B12046FFF7A3FF05E067
:1021B000204600F097F8204600F070F900202077C4
:1021C00020680069C0F30010D8B12068C068C0F36F
:1021D0000010B0B16FF0100021680861082020776E
:1021E0002068C06900F4407018B12046FFF782FFF4
:1021F00005E0204600F076F8204600F04FF9002078
:1022000020772068006900F0010058B12068C0689C
:1022100000F0010030B16FF0010021680861204634
:1022200000F0A8F920680069C0F3C01058B1206818
:10223000C068C0F3C01030B16FF080002168086141
:102240002046FFF74FFD20680069C0F3801058B1A9
:102250002068C068C0F3801030B16FF04000216882
:102260000861204600F087F920680069C0F340103B
:1022700058B12068C068C0F3401030B16FF0200042
:10228000216808612046FFF72EFD10BD10B586B00D
:102290000446002002900390049005900E492068A7
:1022A000884217D100BF0D48806940F004000B49F7
:1022B00088610846806900F00400019000BF00BFFB
:1022C0004FF4E060029002200390059002A90448B8
:1022D000FEF73EFF06B010BD002C0140001002408A
:1022E00000080140704770B504460D46164600BF11
:1022F00094F83C00012801D1022070BD012084F82F
:102300003C0000BF36B1042E1BD0082E31D00C2E5D
:102310005ED145E02946206800F00AFC206880690B
:1023200040F00800216888612068806920F004007E
:10233000216888612068806929690843216888616B
:1023400047E02946206800F023FC2068806940F4BB
:102350000060216888612068806920F480602168BD
:10236000886120688069296940EA012021688861C4
:102370002FE02946206800F03FFC2068C06940F04B
:1023800008002168C8612068C06920F00400216845
:10239000C8612068C069296908432168C86118E0DC
:1023A0002946206800F05CFC2068C06940F40060A9
:1023B0002168C8612068C06920F480602168C86114
:1023C0002068C069296940EA01202168C86100E0ED
:1023D00000BF00BF00BF002084F83C0000BF00BF6A
:1023E0008BE710B504460CB9012010BD94F83D00F0
:1023F00028B9002084F83C00204600F025F802208F
:1024000084F83D00211D206800F046FB012084F87F
:10241000460000BF84F83E0001213F2001554020C6
:1024200001554120015500BF00BF012084F8420042
:1024300043200155442001554520015500BF01208E
:1024400084F83D000020D0E738B5044611492068E3
:1024500088421DD100BF1048806940F400600E49D9
:1024600088610846806900F40060009000BF00BFEA
:10247000002211461820FFF787F81820FFF774F89C
:10248000002211461920FFF77FF81920FFF76CF89A
:1024900038BD0000002C01400010024070470000D1
:1024A00070B504460D4615B994F83E000BE0042DB6
:1024B00002D13F20005D06E0082D02D14020005DE2
:1024C00001E04120005D012801D0012070BD1DB94F
:1024D000022084F83E000EE0042D03D102213F20AB
:1024E000015508E0082D03D102214020015502E0EA
:1024F00002214120015501222946206800F006FBF7
:1025000019492068884201D1012000E0002028B14B
:102510002068406C40F400402168486412492068FB
:1025200088420BD02068B0F1804F07D00F49206857
:10253000884203D00E49206888420CD12068806808
:1025400000F00706062E0CD02068006840F001005D
:102550002168086005E02068006840F001002168FB
:1025600008600020B2E70000002C01400004004099
:10257000000800407047704700BFFEE710B51848DC
:102580001849086008204860002116488160C16031
:102590004FF44031016109014161002101760121BF
:1025A00041768176C176002101774177FEF7DDFB28
:1025B00008B1FEF74EF801200B490862486100207F
:1025C0000861086048608860C86088610120C8614F
:1025D00048620448FEF744F908B1FEF73AF810BD26
:1025E00000640040840000200002002000B585B097
:1025F0000020019002900390049000BF344880694D
:1026000040F01000324988610846806900F01000EF
:10261000009000BF00BF00BF0846806940F0200066
:1026200088610846806900F02000009000BF00BF6C
:1026300000BF0846806940F0040088610846806950
:1026400000F00400009000BF00BF00BF0846806992
:1026500040F0080088610846806900F0080000909A
:1026600000BF00BF012251031A48FEF701FF0022FC
:102670003C211948FEF7FCFE002218211748FEF7FE
:10268000F7FE4FF4005001900120029000200390CB
:102690000220049001A90F48FEF75AFD3C2001904A
:1026A00001200290002003900220049001A90A4812
:1026B000FEF74EFD182001900120029000200390AB
:1026C0000220049001A90548FEF742FD05B000BDB7
:1026D000001002400010014000080140000C0140C1
:1026E00000B591B000200F9010901C2108A8FDF7B4
:1026F0006BFD20216846FDF767FD2B482B490860DC
:1027000040F645004860002128488160A921C16049
:102710000021016141618161FFF763FE08B1FDF7AE
:1027200098FF00200F9010900FA92048FFF716FB8C
:1027300008B1FDF78EFF60200890002009900A90F4
:102740000B900C900D900E90002208A91748FFF7EF
:10275000CAFD08B1FDF77DFF042208A91348FFF761
:10276000C2FD08B1FDF775FF082208A90F48FFF761
:10277000BAFD08B1FDF76DFF0020009001900290B6
:10278000039004904FF40050059000200790694694
:102790000648FFF7A9FA08B1FDF75BFF0348FFF70A
:1027A00075FD11B000BD0000002C0140AC00002000
:1027B00000B58BB0242102A8FDF706FD0020009093
:1027C00001904FF0804017490860002048600021C8
:1027D000144881604FF6FF71C16000210161816181
:1027E0000320029000200390012004900020059017
:1027F0000690079001200890002009900A9002A9F5
:102800000848FFF7EDFA08B1FDF723FF002000901C
:10281000019069460348FFF7A1FA08B1FDF719FFD7
:102820000BB000BDF400002000B58BB0242102A83D
:10283000FDF7CAFC00200090019018481849086074
:10284000002048600021164881604FF6FF71C1608A
:10285000002101618161032002900020039001208A
:102860000490002005900690079001200890002019
:1028700009900A9002A90A48FFF7B2FA08B1FDF7D9
:10288000E8FE00200090019069460548FFF766FACF
:1028900008B1FDF7DEFE0BB000BD000000040040F3
:1028A0003C01002000B58BB0242102A8FDF78CFC70
:1028B00000200090019018481849086000204860E6
:1028C0000021164881604FF6FF71C160002101614F
:1028D00081610320029000200390012004900020D9
:1028E00005900690079001200890002009900A901A
:1028F00002A90A48FFF774FA08B1FDF7AAFE002002
:102900000090019069460548FFF728FA08B1FDF7E5
:10291000A0FE0BB000BD00000008004084010020B4
:1029200000BFFEE700BFFEE77047000008B508499A
:102930000968C9084FF47A72B1FBF2F14143009182
:1029400000BF00BF00994A1E00920029F9D108BDBE
:10295000800000207047000010B5044624B1012C0F
:1029600011D0022C2DD11DE0002210211648FEF7B7
:102970007FFD002208211448FEF77AFD002013494C
:10298000096848621DE0002208211148FEF770FD29
:10299000002204210E48FEF76BFD00200D49096856
:1029A00048620EE0002210210948FEF761FD002276
:1029B00020210748FEF75CFD0020074909684862AE
:1029C00000BF00BF10BD0000000C0140F40000205B
:1029D000000801403C0100208401002010B5FEF7F2
:1029E00053FD10BD00B58FB0282105A8FDF7ECFB05
:1029F00014216846FDF7E8FB0120059000040690CD
:102A0000002007900120099002200C90C1030D9135
:102A10004FF4E0110E9105A8FEF718FF08B1FDF77D
:102A200018FE0F20009002200190802002900020CC
:102A30000390049002216846FEF7F8FD08B1FDF707
:102A400008FE0FB000BD704710B50248FFF753FBFA
:102A500010BD0000AC00002010B50248FFF74BFB92
:102A600010BD0000AC00002010B50248FFF743FB8A
:102A700010BD0000F400002010B50248FFF73BFB3A
:102A800010BD00003C01002010B50248FFF733FBE9
:102A900010BD00008401002010B50268184B984258
:102AA00008D0B0F1804F05D0164B984202D0164B9B
:102AB000984203D122F070024B681A43104B98429F
:102AC00008D0B0F1804F05D00E4B984202D00E4B8B
:102AD000984203D122F44072CB681A4322F080035B
:102AE0004C6943EA040202608B68C3620B6883622C
:102AF000034B984201D10B6903630123436110BD6D
:102B0000002C0140000400400008004030B501F0F6
:102B10001F05012404FA05F3046A9C430462046A55
:102B200001F01F0502FA05F52C43046230BD0000D8
:102B300030B5056A25F001050562026A43688469BB
:102B400024F0700424F003040D682C4322F00202E8
:102B50008D682A430D4DA84206D100BF22F008021D
:102B6000CD682A4322F00402084DA84207D123F47D
:102B7000807323F400734D692B438D692B434360AD
:102B800084614D684563026230BD0000002C014045
:102B900030B5056A25F010050562026A436884694C
:102BA00024F4E04424F440740D6844EA052422F03F
:102BB00020028D6842EA05120E4DA84207D100BFDF
:102BC00022F08002CD6842EA051222F04002094D4F
:102BD000A84209D123F4806323F400634D6943EADA
:102BE00085038D6943EA8503436084614D6885638D
:102BF000026230BD002C014030B5056A25F48075B5
:102C00000562026A4368C46924F0700424F0030476
:102C10000D682C4322F400728D6842EA05220F4DA4
:102C2000A84207D100BF22F40062CD6842EA052223
:102C300022F48062094DA84209D123F4805323F481
:102C400000534D6943EA05138D6943EA0513436058
:102C5000C4614D68C563026230BD0000002C0140B4
:102C600030B5056A25F480550562036A4468C26977
:102C700022F4E04222F440720D6842EA052223F475
:102C800000538D6843EA0533064DA84204D124F46D
:102C900080444D6944EA85144460C2614D6805640E
:102CA000036230BD002C014010B50248FDF736FF2D
:102CB00010BD00008400002000BFFEE7490050EA7C
:102CC000C12018BF04204A0D18BF40F0010040F297
:102CD000FF72B2EB515F08BF40F00200012808BF4D
:102CE0000520704702480068C0F3022070470000CA
:102CF0000CED00E010B5002804DB0A07130E054AAE
:102D0000135406E00A07140E034A00F00F031B1FBA
:102D1000D45410BD00E400E018ED00E02DE9F74FB9
:102D2000144694B00021C4E902111599079121F0CD
:102D30000045C9498D4206DC1599C4E9000117B068
:102D40000020BDE8F08FC549DFF814A3A9423CDD9F
:102D50000799C44E0029C44FC44A1599534619DD3A
:102D600001F060FC554506D0C14AC24B01F05AFC47
:102D7000C4E900010AE04FF0D352BE4B01F052FC0F
:102D800032463B4601F04EFCC4E9000117B0012079
:102D9000BDE8F08F00F0F4FF554506D0B44AB54BBE
:102DA00000F0EEFFC4E900010AE04FF0D352B14B4E
:102DB00000F0E6FF32463B4600F0E2FFC4E90001C6
:102DC00017B04FF0FF30BDE8F08FAB49A94215991D
:102DD00078DB21F0004183468846A84AA84B01F0E1
:102DE00031FA0022A74B00F0CBFF01F0D1F9099096
:102DF00001F0FDF906460F469C4A534601F022FABF
:102E000043465A4601F01CFB80468A46984A994B35
:102E10003046394601F016FA2A0D01250B9242463A
:102E2000534601F00DFB032DC4E9000139D00B9886
:102E3000C1F30A51401A05EB45111139814230DACC
:102E40009148C346784400EB0510CDF80CA00C90D7
:102E5000D0E900233046394601F0F4F902460B462A
:102E6000049106905846039901F0DCFB80468A469F
:102E700002460B465846039901F0D4FB049B069A80
:102E800001F0D0FB83460C9803913946D0E9022328
:102E9000304601F0D7F95A46039B01F0C3FB6D1C85
:102EA000BDE707980028A2BF099817B0BDE8F08FCA
:102EB000616881F000416160099817B04042BDE847
:102EC000F08FFFE784461598C1F31301C0F30A5051
:102ED000A0F2F5304FEA601800F01F06C6F120009E
:102EE000139000200690079041F4801E05206D4647
:102EF00076B1664A08EB00017A4452F8213002EBC1
:102F00008101B3404A68139922FA01F1194305E09F
:102F10005F4908EB0002794451F82210A1FB0E270B
:102F2000A1FB0C131A449A4234BF0123002303EB84
:102F3000070A05EB8003D3E901B70F448F4234BF82
:102F40000121002193448B4411B1934502D903E040
:102F5000934501D2012100E00021C3E901B75144AA
:102F600045F82010011EA0F10100C1DC0298059F68
:102F700000F10050800F12900298DDE903568000A6
:102F800001F035F9834628460D9101F047F96FF0BD
:102F90001D0201F0CEFFCDE90E01304601F03EF9F1
:102FA0006FF03D0201F0C5FF80468A46384601F0C9
:102FB00035F96FF05D0201F0BCFF0746424653460B
:102FC000119100F0DDFEDDE90E2300F0D9FE5A4636
:102FD0000D9B00F0D5FE00250E465A4628460D9B57
:102FE00001F020FBDDE90E2301F01CFB42465346B5
:102FF00001F018FB3A46119B01F022FADFF898A085
:10300000244A534601F01EF907468846234A244BBA
:103010003146284601F016F93A46434600F0B0FE24
:10302000074688464FF0A84253463146284601F0ED
:1030300009F93A46434600F0A3FE159A12F0004FF4
:1030400004D0129A81F0004152421292C4E9000168
:10305000129817B0BDE8F08FFB21E93F7CD9024000
:10306000FB21F93F7370032E8A19A33B00004054E3
:103070003163621A61B4D03DFB21394183C8C96D07
:10308000305FE43F0000E03F102200008C21000090
:103090006E210000182D4454FB21F93D3326A61162
:1030A000460B113C2DE9FF4D21F0004807460C4628
:1030B000B8F1795F08DA01F06BF8002801BF002051
:1030C000324904B0BDE8F08D3A4623461046194611
:1030D00001F0B8F8054602462D480E460B4606217B
:1030E000784400F05DF82A46334601F0ABF8DDE99C
:1030F000022382468B463846214601F0A3F8044657
:103100000F4652465B462846314601F09BF8224660
:103110003B4601F087FA07468A464FF0FF322846C1
:10312000314601F006FF1B4A90450ADA3A465346FB
:1031300001F078FA04B00022BDE8F04D134B01F025
:103140007FB9154A4245A8BFA8F500154FF0000405
:10315000B8BF124D22462B4601F064FA0646884657
:1031600022462B460020094901F05CFA04460D4630
:103170003A4653463046414601F054FA04B02246DE
:103180002B46BDE8F04D01F05BB900000000F03FB8
:10319000441F00003333D33F0000E93F0000D23F1B
:1031A0002DE9F0414F1E00EBC7010446D1E90001B3
:1031B00015461E4637F006020DD02A46334601F06A
:1031C00041F87F1E04EBC703D3E9002300F0D8FDCC
:1031D00037F00602F1D1022F25D0042F13D0062F8D
:1031E00018BFBDE8F0812A46334601F02BF8D4E938
:1031F0000A2300F0C5FD2A46334601F023F8D4E93E
:10320000082300F0BDFD2A46334601F01BF8D4E93F
:10321000062300F0B5FD2A46334601F013F8D4E941
:10322000042300F0ADFD2A46334601F00BF8D4E943
:10323000022300F0A5FD2A46334601F003F8D4E945
:103240000023BDE8F04100F09BBD00002DE9FF4DDB
:10325000054621F0004084B00C46B0F1795F0BDAEE
:103260002846FFF72BFD042808BF00F06FF828461A
:1032700008B02146BDE8F08D2A460B46104600F006
:10328000E1FF06460F462A46234600F0DBFF804654
:1032900026488A4632463B4605217844FFF780FFA0
:1032A00083461098029160B3214A224B4046514612
:1032B00000F0C8FFCDE900015A4640465146029B46
:1032C00000F0C0FF82468846DDE906014FF0FF327C
:1032D00001F02FFE5246434601F0A4F932463B4628
:1032E00000F0B0FFDDE9062301F09CF9DDE90023E1
:1032F00001F098F908B02A462346BDE8F04D01F0E8
:103300009FB80B465A463046394600F09BFF084AA4
:10331000084B00F035FD4246534600F093FF08B0DD
:103320002A462346BDE8F04D00F02ABD821E00006B
:10333000495555555555C5BF012201F0FABD00222A
:1033400013461046114600F0CBBD0000024A002093
:10335000110701F0EEBD000001FDFFFF2DE9F04D6A
:103360000546DFF8388221F000408D4F82B00C46D0
:10337000404520DBA0EB080129430BD08949884256
:1033800001DC10D17DB102B028462146BDE8F04DE8
:10339000FFF7D2BF002CC7BF002001468248394644
:1033A00002B0BDE8F08D0120FCF73DFF02B0BDE8A2
:1033B000F04DFFF7C4BF7D49884244DA7C49814221
:1033C000A1BF79487B4902B0BDE8F08D2A4623466B
:1033D0001046194600F036FF8346024676480E46F0
:1033E0000B4606217844FFF7DBFE5A46334600F0D1
:1033F00029FF074671488A465A46334604217844D5
:10340000FFF7CEFE5A46334600F01CFF002243462B
:1034100000F0B6FC02460B463846514600F060FD0F
:103420002A46234600F00EFF654A664B01F008F875
:103430002A46234601F004F802B05B4ABDE8F04D8D
:103440005C4B00F0FDBF002C4FF000024BDA46460B
:1034500043462846214600F093FC4FF0FF3201F02E
:1034600068FD0446024658480D460B46062178443E
:10347000FFF796FE22462B4600F0E4FE80465348B6
:103480008A4622462B4604217844FFF789FE2246CD
:103490002B4600F0D7FE0022334600F071FC0646B2
:1034A0008B462046294600F013FC04460D46324662
:1034B0005B464046514600F013FD22462B4600F085
:1034C000C1FE3F4A3F4B01F0ADF822462B4600F0CB
:1034D00057FC012201F02DFD02B03B46BDE8F04D46
:1034E000314A00F0ADBF2D4B2846214600F0A8FF21
:1034F0004FF0FF3201F01DFD05460E4600F0E8FBDF
:1035000000270C4680463A460B4600F039FC8246BE
:103510008B463A4623461046194600F093FE2A464B
:10352000334600F08DFF52465B4600F0D9FC8246E0
:1035300027488B462A46334606217844FFF730FE5B
:103540002A46334600F07EFECDE9000121482A4696
:10355000334604217844FFF723FE2A46334600F021
:1035600071FE00220D4B00F00BFC02460B46DDE91C
:10357000000100F0B5FC4246234600F063FE5246CF
:103580005B4600F0FDFB3A46234600F0F9FB02B033
:103590000122BDE8F04D01F0CCBC00000000F03F7E
:1035A000FB2109400000F07F182D44540000E03F4B
:1035B0000000603CFB21F93FF01B0000061C0000EE
:1035C000075C143326A6913C661B00007C1B0000A0
:1035D0009A1A0000B01A000000B5244B21F00042F6
:1035E00087B09A42DCBF0022134629DD204B9A4265
:1035F00008D140B94FF00100FCF715FEFFF79FFE20
:1036000007B000BD03DBFFF797FE07B000BD02AABD
:10361000FFF784FB10F0030104BF0DF1080C9CE8D8
:103620000F000DD0012001290ED0022914D00DF178
:10363000080C00909CE80F00FFF708FE07B000BDE3
:10364000FFF730FD07B000BD0DF1080C00909CE8BD
:103650000F00FFF7FBFD05E00DF1080C9CE80F00E3
:10366000FFF720FD07B081F0004100BDFB21E93FDD
:103670000000F07F2DE9F04F89B0A84801684FF0B5
:10368000804001F0B1FA044601F0B6F8CDE904013A
:10369000A348006801F0B0F80646A24AA24B00F029
:1036A000D1FD04469F4AA04B00F0CCFDCDE90201BC
:1036B0009E48006801F0A0F804469A4A9C4B00F02E
:1036C000C1FD8246DDE9022300F05AFB8046DDE9B8
:1036D000042300F055FBCDE9060100F01FFB9549DE
:1036E0000860924801684FF0804001F07DFA06467C
:1036F00001F082F804468B4A8B4B00F0A3FDCDE924
:103700000401864801684FF0814001F06DFA80465F
:1037100001F072F804460D468148006801F06CF82B
:103720008046804A804B00F08DFD82467D4A7E4B6C
:1037300000F088FD064622462B4600F073FFCDE9D7
:103740000201DDE9042300F06DFFCDE9060100F080
:10375000E5FA79490860714801684FF0804001F04E
:1037600043FA7649086000200146FFF7F7FD8246DC
:103770008B467349B1F90010480000F038FD8046CF
:1037800052465B4600F05EFD064600226D4B00F09F
:10379000A7FB044600F0C2FA0890089801F02CF844
:1037A000824600F045FA06460F466748008800F05A
:1037B00035FD804632463B4600F044FD044600F0AD
:1037C000ADFA62490860089801F016F8064600F064
:1037D0002FFA044600224FF0804300F081FBCDE930
:1037E0000201089801F008F80646FFF7F5FE80464A
:1037F00089460020564900F06BFA064600224FF039
:10380000804300F06DFB044642464B4600F01AFD33
:10381000CDE90001DDE9022300F004FF82468B467A
:103820004948008800F0FAFC52465B46CDE90401A5
:1038300000F008FDCDE9060100F070FA4349486048
:10384000089800F0D9FF064600F0F2F9044600227D
:103850004FF0804300F044FBCDE90201089800F0EE
:10386000CBFF0646FFF7B8FE04460D460020384958
:1038700000F02EFA064600224FF0804300F030FBA5
:1038800081F00041804622462B4600F0DBFCCDE96A
:103890000001DDE9022300F0C5FECDE906012A485A
:1038A000008800F0BBFCCDE90401DDE9062300F04F
:1038B000C9FC824600F032FA24498860002428E0DE
:1038C000224951F82400002101F05AFA06D21F4A79
:1038D00052F82410E0B2FCF7BFFE19E01B4951F882
:1038E0002400002101F04CF90FD2184951F82400AE
:1038F00000F082FF21F00041064600F00FFA054675
:10390000E0B22946FCF7D4FC02E0E0B2FFF724F86D
:10391000641C032CD4DB09B0BDE8F08F60000020EC
:103920005C0000207B14AE47E17A843F5800002001
:10393000E17A943F680000206C00002070000020B5
:103940002A000020008066402E0000207402002023
:1039500000000840FDF7A4FDFFF744F8FEF746FE1F
:10396000FEF70CFEFEF7BCFEFEF722FFFEF75CFF43
:10397000FEF798FF00218248FEF792FD042180485F
:10398000FEF78EFD08217E48FEF78AFD04217D4862
:10399000FEF732FB04217C48FEF72EFB04217B4816
:1039A000FEF72AFB7A48FDF788FB08B1FCF751FEC9
:1039B00002217748FCF794FE08B1FCF74AFE00228A
:1039C00011460220FDF7E0FD0220FDF7CDFD0020AD
:1039D000FEF7C2FF0120FEF7BFFF0220FEF7BCFF8B
:1039E000CDE06C4800780128FAD16B4800780128B6
:1039F0007ED16A480078032869D16948B0F900008F
:103A00006849B1F90010884220D06548B0F900003B
:103A100001F08AF80546644901F0E6F8044601F031
:103A200047F800B2614908800846B0F9000001F08B
:103A30007BF80446FCF7A4FC5948B0F9000059494A
:103A400008805B4800885B49088098E058480088F7
:103A5000584909888842C3D05548008800280EDD9F
:103A6000002409E05248008801F076F80546E0B2EB
:103A70002946FCF7F1FD641C032CF3DB1DE04C48E8
:103A8000008800280EDA002409E04948008801F087
:103A900063F80546E0B22946FCF70AFC641C032CD7
:103AA000F3DB0AE04248008838B9002403E0E0B2C2
:103AB000FEF752FF641C032CF9DB3948B0F9000013
:103AC000384908803A4800883A49088057E0334826
:103AD0000078022853D1384800883849098888423C
:103AE0004DD02F480088F0B12D48B0F9000000E01B
:103AF0003DE001F019F805462B4901F075F8044640
:103B000000F0D6FF00B2294908800846B0F900004D
:103B100001F00AF80446FCF733FC2148B0F9000034
:103B2000204908801EE0002403E0E0B2FEF714FF05
:103B3000641C032CF9DB1E48008801F00DF80446D4
:103B40001F48B0F9000000F0EFFF05462146FFF7DF
:103B500091FD1B48B0F900001A49088014480088FC
:103B600014490880144800881449088007E000249C
:103B700003E0E0B2FEF7F0FE641C032CF9DB30E753
:103B8000AC000020F40000203C0100208401002053
:103B900084000020200000202100002022000020BE
:103BA0002400002026000020967B1A4028000020D8
:103BB0002E000020300000203200002034000020C1
:103BC0002A0000202C000020014621B1012909D043
:103BD000022915D10DE012480068406A00B2114A6E
:103BE00010800DE010480068406A00B20D4A108055
:103BF00006E00E480068406A00B20A4A108000BF22
:103C000000BF0848B0F90000B0F5004F04DD0548DA
:103C1000008800B2034A10800248B0F900007047E3
:103C2000F4000020360000203C0100208401002028
:103C300000B5254B21F0004287B09A4203DC0022F8
:103C4000134600922BE0214B9A4208D140B94FF025
:103C50000100FCF7E8FAFFF772FB07B000BD03DBD9
:103C6000FFF76AFB07B000BD02AAFFF757F810F094
:103C700003014FF001000DD0012914D002291AD000
:103C80000DF1080C9CE80F00FFF70CFA07B081F06B
:103C9000004100BD0DF1080C00909CE80F00FFF7FB
:103CA000D5FA07B000BD0DF1080C9CE80F00FFF736
:103CB000F9F907B000BD0DF1080C00909CE80F0069
:103CC000FFF7C4FAE2E70000FB21E93F0000F07FC4
:103CD0002DE9F04106460F4600F0BEFB041E0D46DE
:103CE00018BF0120284320F00040C0F17F6000F1A0
:103CF000E040C00F0ED0301C18BF0120384320F028
:103D00000040C0F17F6000F1E040C00F04BF01201F
:103D1000FCF789FA20462946BDE8F08121F00042EF
:103D2000A2F16052B2F5801F01F0004328BFD2F12A
:103D30007F6C0BD95FEA001C43EAC20242EB507071
:103D400018BF704728BF20F001007047B2F5801FF0
:103D5000BCBF184670474FEA410C1CF5001F02D249
:103D6000084601F008B870B500F016FB00000089A5
:103D7000FFF7F6BF4FF00040A0F58000704700004D
:103D800010B591EA030F48BF83F0004300F152845D
:103D9000841A71EB030C05D2121943EB0C03001BC0
:103DA00061EB0C01DFF824E14FEA1154A4EB135C42
:103DB0001EEA430F18BF9EEA445F73D023EA0E0346
:103DC000DCF1200E21EA045143F4801332D322FAAD
:103DD0000CFE10EB0E0023FA0CFE41EB0E01CCF1B1
:103DE000200E03FA0EFE10EB0E0051F10001B1F5AA
:103DF000801FCCF1200E32D201EB045112FA0EF2E8
:103E0000BDE8104058BF7047401C38BF5FEA42020F
:103E100018BF7047002814BF20F0010041F10001D5
:103E20004FEA410313F5001F38BF7047A1F1C041AD
:103E300000F000BB012A43EB0302ACF1200CDCF1E3
:103E40001F0E32BF4FF0000E23FA0CF310EB0300ED
:103E500041EB0451B4EB115FD0D0A1EB045101F55B
:103E6000801149085FEA300001EB04510ED350F194
:103E7000000038BF12FA0EFE08D1BDE81040C9E7B5
:103E8000401C38BF5FEA4202CAD1C3E7BDE8104018
:103E90004FEA410313F5001F38BF7047A1F1C0413D
:103EA00000F0C8BA9EEA445F08D011EA5E0FBDE890
:103EB000104004BF01F0004100207047BDE81040F1
:103EC00070B500F069FA00BF64FBBE3E0000E0FF81
:103ED00002494FF0000000F0FABF00BF0000F87F79
:103EE0002DE9C04130B4DFF8A0C23CEA111418BF7C
:103EF0003CEA131400F0EC8081EA03051CEA11147B
:103F000044EAD57418BF1CEA131500F0C780A4EB6F
:103F100005044FF0004545EAC12145EAC32341EAC3
:103F2000505143EA525304F17F74994204F500342E
:103F30004FEAC0204FEAC22208BF904200F09C80A6
:103F40004FEA13650FF24016765D4FEA134506FB04
:103F500005F7C7F1807706FB07F74FEAD737A7FBCE
:103F600003687642C8F58038A7FB06CE38BFA8F1B3
:103F7000010807FB08E64FF0000EA6FB028CE6FBEB
:103F800003CEDCF1000CCEF1004E38BFAEF1010ED5
:103F9000A6FB0C584FF000074FF00005E6FB0E871C
:103FA000A1FB08C6A0FB07CE16EB0E0645F10005E7
:103FB000E1FB076515F1E04E7EBFA4F580345FEAB2
:103FC00046066D4116F1800745F100054FEA1727B7
:103FD0004FEA066647EA0567A6F1DE46B6F1805F5E
:103FE0004FEA15251FD9384624F0010C05EBC471A2
:103FF000BCF1FE6F01EB0C1102D8F0BCBDE80081F2
:1040000024425CBF01F5801E9EEAC47F02D4F0BC4E
:10401000BDE80081244238D4F0BCA1F1C041BDE824
:10402000004100F007BA4FEAD22242EA43524FEA77
:10403000D323A7FB02864FEAD02040EA415007FB7A
:1040400003661EEA0E0F4FEAD12105FB026658BF38
:10405000A6EB0056B6EB00564FEA520E4EEAC37E70
:1040600018EB0E0E56EB530EBDD518EB02085E4151
:104070007F1C55F10005B6E74FF480154FF000079F
:104080004FF000064FF00008ADE7F0BC4FF0000025
:1040900001F1C04101F00041BDE8008111EA0C1FAF
:1040A0000CEA131500D00CE013EA0C1F00F0258079
:1040B0004FF00000F0BC81EA030101F00041BDE8CF
:1040C0000081F0BCBDE8004181EA030100F0B2B913
:1040D000F0BCBDE8004170B500F05EF9097EFC3E21
:1040E00000F007B881EA03014FF0000001F0004141
:1040F000704781EA030100F09DB9F0BCBDE80041C2
:104100004FF0000021497047FFFDFBF9F7F5F4F28D
:10411000F0EEEDEBE9E8E6E4E3E1E0DEDDDBDAD862
:10412000D7D5D4D3D1D0CFCDCCCBCAC8C7C6C5C4C0
:10413000C2C1C0BFBEBDBCBBBAB9B8B7B6B5B4B3D7
:10414000B2B1B0AFAEADACABAAA9A8A8A7A6A5A4C2
:10415000A3A3A2A1A09F9F9E9D9C9C9B9A99999886
:104160009797969595949393929191908F8F8E8E29
:104170008D8C8C8B8B8A89898888878786858584B6
:1041800084838382828181800000FF070000F87FA2
:104190004FEA41034FEA5353A3F58063D3F11E0363
:1041A000C8BFD3F1210C0CDD4FF0004242EAC1221E
:1041B00042EA505232FA03FC8CEAE17CACEBE1704B
:1041C0007047102BC4BF0020704703F5787CBCF10A
:1041D000FF3F04D06FF0004282EA2100704770B5C3
:1041E00000F0DAF84992248000207047F2E710F0DE
:1041F000004248BF4042B0FA80F310FA03F10AD0FF
:10420000C3F11D0303F580634FEA415002EB0352F3
:1042100002EBD12170474FF000007047B0FA80F3F5
:1042200010FA03F10AD0C3F11D0303F580634FEACE
:1042300041504FEA035202EBD12170474FF000008A
:1042400070470000DFF848C170B51CEA111E1EBFA0
:104250001CEA13159EEA0C0F95EA0C0F00F06F8014
:1042600081EA030423EA4C134EEAD47E21EA4C117E
:1042700041F4801143F48013AE44A1FB024CA0FB37
:104280000365AEF17F7E361955EB0C05A1FB034C9F
:104290004CF10003A0FB021C16EB0C06654153F128
:1042A0000003094218BF46F0010613F4007F0BD14A
:1042B0004FEA03314FEA0530340341EA155140EA31
:1042C00016506FF003020AE04FEAC3214FEAC520FF
:1042D000F40241EA555140EA56506FF0020202EBF7
:1042E0002E4201EB025585EACE710AD05FEA440CFA
:1042F00018BF24F0004450F1000041F1000120EA11
:10430000D47040F2FE7C624500D270BDA84214BF5A
:104310004FF080444FF04044002E08BF0024BEF10F
:10432000806FA8BFA1F1C041BDE8704080F28280DB
:104330004FF0000001F1C04101F0004170479EEADA
:104340000C0F0CEA131518BF95EA0C0F06D04FF0AE
:10435000000081EA030E0EF0004170BD00F01CF871
:104360008900013E00F007B800F009B84FEA430C9D
:104370005FEA5C5C08D081EA030100F05BB84FEAB9
:10438000410C5FEA5C5CF6D14FF0000001497047D8
:104390000000FF070000F87F0EF1020E2EF0030E62
:1043A0005EF8046B364205D4012A43EB030515F58C
:1043B000001F12D8012841EB010C1CF5001F0CD87E
:1043C0000ED14FEAD17C15F5001F0CEB4C0C0CF113
:1043D000020C08BF4CEBD37C04E04FF0080C01E06A
:1043E0004FEAD37C0CEB4C0526FA05F606F00706DF
:1043F000B6F1040C06D20EEB860CBDE870404CF012
:10440000010C6047DFE80CF0090B02024FF000419D
:104410004FF00000A1F5002170BD1946104601289B
:1044200051EB010418BFD4F5001484BF002001F043
:10443000004170BD0808A0F500114FEA3101704736
:1044400091EA030F10B581F000413FF5A1AC83F074
:10445000004300F0EFB800002DE9F04101F5801CA9
:10446000BCF5001FC0F2C3804FEA115C21EA0C5179
:104470000CF1FD0C41F480115FEA5C0C0CF5C07C82
:1044800001D3400049413DA4890241EA905187028D
:104490008E0E0A0CA45D04FB04F602FB06F6C6F1C0
:1044A0004046A4FB0662F60D46EA422606FB06F4E9
:1044B000A4FB01235242C3F1404338BF5B1EA6FB5D
:1044C00002420024E6FB0324D20B42EA4446A6FB48
:1044D0000623A1FB02E2A3FB07E4A4184FF00002AD
:1044E00052F10002E3FB01426442C2F1404E38BF88
:1044F000AEF1010EA6FB04234FF00002E6FB0E32E4
:10450000A2FB03464FF00004B61954F10004E2FB8D
:104510000264A1FB06E6A4FB07E816EB08064FF0D1
:10452000000858F10008E4FB01687642C8F14058E1
:1045300038BFA8F10108A2FB06E4A3FB08E52D198A
:104540004FF0000454F10004E2FB0854A1FB05E61F
:10455000A7FB04E818EB06084FF0000656F100062A
:10456000E1FB048618F1200556F10006A809A8F120
:104570001B08B10908F03F08B8F10A0F40EA86604D
:104580001CD901EB0C51BDE8F08100BFFCF5EEE851
:10459000E2DDD8D3CFCBC7C3C0BDB9B6B4B1AEACE2
:1045A000A9A7A5A3A19F9D9B9A9896959392908F5A
:1045B0008D8C8B898887868584838281A0FB0068A7
:1045C00000FB01F208EB4208B8EB872807D5341846
:1045D00058EB0104D5D5401C51F10001D1E7341A44
:1045E00078EB0104CDD4401E71F10001C9E75FEA08
:1045F0004C0C5FEA9C5C0DD105D34FF0000001F03C
:104600000041BDE8F081BDE8F04170B5FFF7C4FEA0
:104610006DDBFFBEBDE8F0414FF000000049704780
:104620000000F87F10B591EA030F48BF83F0004304
:104630003FF5AEAB841A71EB030C07D212198CF064
:10464000004C43EB0C03001B61EB0C01DFF8A4E111
:104650004FEA1154A4EB135C1EEA430F18BF9EEA05
:10466000445F00F0B08023EA6E03524221EA045115
:10467000C3EB6E0338BF5B1EDCF1200E25D322FA9C
:104680000CFE10EB0E0043FA0CFE41EB0E01CCF1D8
:10469000200E03FA0EFE10EB0E0051F10001CCF1DA
:1046A000200E29D412FA0EF201EB0451BDE810409D
:1046B00058BF7047401C1CBFB2F1004F7047002824
:1046C0000CBF491C20F00100704712EB020E43EBB7
:1046D000030218BF4FF0010E4EEA4202ACF1200C6B
:1046E000DCF11E0E54D943FA0CFE10EB0E0051F112
:1046F000FF31CCF11E0ED5D50EF1010E12FA0EFED1
:10470000404141EB010101EB445C5FEA5C5C10D984
:1047100010EBDE7001EB045138BFBEF1004FBDE875
:10472000104018BF704700280CBF491C20F0010042
:10473000704730D24FEAD42C11F5001124F40064F4
:104740001BD0B1FA81F20B3AA41AA41ED2F12003B5
:10475000914030FA03F31943904001EBCC71002CE7
:1047600001EB0451BDE81040A8BF704701F1C04102
:104770004FF0000001F000417047B0FA80F310FAEA
:1047800003F100D110BDE41A173C4805C90AE4E75B
:1047900001EB045110BD491001EB0451BDE810407C
:1047A0004FEA300002E04FF0000170474A0008BFB6
:1047B0000042F8D0B2F5001F28BF704701F0004159
:1047C0004FF0000070479EEA445F07D011EA5E0F89
:1047D000BDE8104004BF002100207047BDE8104034
:1047E00070B5FFF7D9FD00BF40DFF63E83F0004112
:1047F000104670470000E0FF43004FEAD30C4FEA39
:104800003C0C43401FBF40070CF1605113F0FE4FBA
:1048100070471CF0006F03D100200CF0004170477E
:104820000CF0004343EA507010B540EACC0000F0B1
:104830005CFA00BF000000924FEA0001FFF7FABDEA
:104840004FF000414FF00000A1F50021704700003B
:1048500090EA010F48BF81F0004100F1CA82421A7C
:104860003CBF801A89184FEAD0524FF07F4C1CEAA7
:10487000410FA2EBD15318BF9CEA026F00F03B80BE
:104880004FF0004C4CEA00204CEA012121FA03FCD5
:1048900010EB0C0C1ED202F1FF325FEA1C2040EB41
:1048A000C25038BF70471CF07F0F4FEA400C18BF52
:1048B000BCF17F4F38BF7047C3F12003994008BF58
:1048C00020F00100BCF17F4F38BF7047A0F1C0401D
:1048D00000F051BA4FEA3C00000A40EBC25028BF3A
:1048E0001CF0FF0F4FEA400CE6D018BFBCF17F4F21
:1048F00038BF7047EAE79CEA026F05D010EA5C0F08
:1049000008BF00F00040704710B500F0EEF900BF9E
:1049100064FBBE3E401058BFC0F14040491058BF34
:10492000C1F140418142EFF3008070474FF47F0CAA
:104930001CEAD0121EBF1CEAD11392EA0C0F93EAB4
:104940000C0F00F0858090EA010F48BF42F480729E
:1049500040F4000C41F400002CF07F4120F07F4037
:1049600000B58142A2EB03020FF2081CACEB504EE3
:10497000C0F100009EF800E04FEA4E0E00FB0EFC76
:1049800038BF49004FEA2C1C02F5FA020CFB0EF36B
:104990004FEACE1E4FEA112C4FEAC1210EEB635EA7
:1049A00042EB22420EFB0CFC4FEA1C5300FB0311AE
:1049B0004FEA112C4FEA01310EFB0CFC4FEADC4CA4
:1049C00000FB0C11C14228BF09184CEB03335DF802
:1049D00004EB10EB410143EBC250B2F57C0F38BF42
:1049E000704729D512F0F00F1CBF00F1C04000F055
:1049F00000407047008182838485868788898B8CFC
:104A00008D8E8F919293959697999A9C9D9FA0A237
:104A1000A3A5A7A8AAACAEB0B2B3B5B7B9BCBEC087
:104A2000C2C5C7C9CCCED1D4D7D9DCDFE2E6E9EC28
:104A3000F0F3F7FAFE0000004FEA400C0CF1807C26
:104A4000BCF17E4F28BF7047B0F1C04000F093B971
:104A500090EA010F0CEAD11348BF42F4807262451C
:104A600038BF634507D213F47F0F16D080EA0100E8
:104A700000F00040704710B500F037F9097EFC3EA9
:104A800000F005B880EA010000F00040704780EABD
:104A9000010000F0004000F06EB912F47F0F04BF77
:104AA0000248704780EA010000F065B90000C07F4D
:104AB00041000B0ED3F19E0208D950F400034FEAD7
:104AC000032323FA02F048BF4042704710B500F0BC
:104AD0000CF900BF49922480002070476FF000421B
:104AE00082EA200070470000C10DD1F19E0206DB72
:104AF0004FEA002343F0004323FA02F070470042DC
:104B000007D54FEA4001B1F1FE4F02D24FF000004D
:104B1000704710B500F0E9F84992248000207047F2
:104B20006FEA20007047000010F0004148BF40428B
:104B3000B0FA80F310FA03F2C3F19D030BD051EAEF
:104B4000C35101EB1220530638BF704700F101003A
:104B500008BF20F001007047B0FA80F310FA03F2AA
:104B6000C3F19D030AD0D90501EB1220530638BFCB
:104B7000704700F1010008BF20F0010070470000FD
:104B800050EA010C00F113801CF5000F58BFBCF572
:104B9000000F01D48842704707D710F5000F58BFA7
:104BA00011F5000F15D488427047894270471CF5F3
:104BB000000F04D5BCF5000FF7D5814270474FF0C8
:104BC000807C1CEB400F38BF1CEB410F01D28142AF
:104BD000704710B500F089F8922449004FF000505A
:104BE0004FF08051FFF796BE4FF47F0C1CEAD012B5
:104BF0001EBF1CEAD11392EA0C0F93EA0C0F00F0CF
:104C0000478090EA010F48BF42F480724FF0004C99
:104C10004CEA00204CEA012102EB0302A0FB011345
:104C2000A2F50002002918BF43F001035B0028BF72
:104C30004FEA330342EB22425FEA132C4CEBC250A3
:104C40002EBFBCEB436FB2F57C0F70474FEA036C8D
:104C5000BCF1004F08BF20F00100B2F57C0F38BF57
:104C600070470BD582F0FF0212F5803FC8BF704736
:104C700000F1C040D8BF00F00040704700F5000CC4
:104C80005FEA4C0C48BF7047B0F1C04000F073B809
:104C900090EA010F0CEAD11348BF42F480726245DA
:104CA00038BF634504D280EA010000F0004070473D
:104CB00010B500F01AF800BF8900013E00F007B8F7
:104CC00000F009B85FEA410C5FEA1C6C08D080EA8A
:104CD000010000F050B85FEA400C5FEA1C6CF6D1AE
:104CE0004FF00040A0F5800070470EF1020E2EF04C
:104CF000030E5EF8044B244204D44FEA4102B2F1A1
:104D00007F4F11D84FEA4003B3F17F4F0CD80ED13B
:104D10004FEAD07CB2F17F4F0CEB4C0C0CF1020C43
:104D200008BF4CEBD17C04E04FF0080C01E04FEAE7
:104D3000D17C0CEB4C0324FA03F404F00704B4F127
:104D4000040C06D20EEB840CBDE810404CF0010CB4
:104D50006047DFE80CF0070802024FF00040A0F5C2
:104D6000800010BD0846420018BFD2F1807288BF93
:104D700000F0004010BDFF2141EAD050C00570474F
:104D800051EA000C00F113801CF5000F58BFBCF570
:104D9000000F01D48142704707D711F5000F58BFAB
:104DA00010F5000F15D481427047894270471CF5F9
:104DB000000F04D5BCF5000FF7D5884270474FF0BF
:104DC000807C1CEB410F38BF1CEB400F01D28842A6
:104DD000704780EA010081EA000180EA0100FFF7E4
:104DE000F8BE000090EA010F48BF81F000413FF596
:104DF00036AD421A04D882F00042A0EB0200114402
:104E00004FEAD0524FF07F4C1CEA410FA2EBD15336
:104E100018BF9CEA026F4AD04FF0004C4CEA0020C9
:104E20004CEA012121FA03FCB0EB0C0C0FD412F078
:104E3000FE0F36D05FEA4C001DD5001240EBC25089
:104E400038BF70471CF03F0F18BF70470BE0A2F14E
:104E500001025FEA1C2040EBC25038BF70471CF0D3
:104E60007F0F18BF7047C3F12003994014BF401E45
:104E700020F00100704780084FEA122308BF7047F6
:104E8000B0FA80FCA2EB0C02CCF1280C60FA0CF01A
:104E900093EA122F04BF00EBC25070474FEAC37071
:104EA0007047130A5FEADC1008BF7047F6E79CEA18
:104EB000026F04D010EA5C0F08BF0020704710B5E5
:104EC000FFF713FF40DFF63E81F0004070470CF023
:104ED0000F03092B08BF082000F059800A2B0BD0C4
:104EE000082B18BF704708BF1CF0400F0AD04FF0C6
:104EF00000004FF0000170471CF0400F18BF4FF04A
:104F0000004070471CF0100F08D020F0704300F0F4
:104F10007F4242EAD3014FEA4370704700F060409D
:104F200021F07F4242EA000201F07F4040EA7270C5
:104F300070474FF0FF0C4CF4E06C1CEA11531CBF9F
:104F40009CEA030C9445C2BFDA4201EB0251704760
:104F5000002B0DD0BCF1000F0FD0002A01F0004152
:104F6000A4BF41F0E04141F07F614FF00000704785
:104F700001F000414FF00000704750EA01334FF05C
:104F80009B0C18BF4CF0806C7EF4A2AF70471CF4F1
:104F9000801F11D01CF4E02F03D06FEACC31490000
:104FA00070474FF04050EFF3008222F0704242EA27
:104FB000000282F3008870474FF000007047000045
:104FC00000000000000001020304060708090000B9
:104FD0000000010203040000555555555555C53FC5
:104FE0007D6FEB0312D6D4BF5544880E55C1C93F1F
:104FF0003B8F68B52882A4BF88B20175E0EF493FB6
:1050000009F7FD0DE13D023F4B2D8A1C273A03C0F5
:10501000C88A599CE52A004059018D1B6C06E6BFE1
:1050200082922EB1C5B8B33F4C5555555555A53F45
:105030007751C1166CC156BF9015CB19A001FA3E2D
:10504000AD529C804F7E92BEC4B1B4BD9EEE213E57
:10505000D43888BEE9FAA8BD00004054FB21F93FCE
:105060003163621A61B4D03D0000601A61B4D03D72
:105070007370032E8A19A33B0000002E8A19A33BEC
:10508000C14920259A837B39000000000000000000
:105090006E83F9A22915444ED15727FCC0DD34F5A3
:1050A000999562DB4190433CAB6351FE61C5BBDE29
:1050B0003A6E24B7E0D24D42EA2E49061C92D1093D
:1050C0001CEB1DFE3EA729B1F53582E88444BB2EBA
:1050D00026709CE9417E5FB439D69139F439538307
:1050E0008B5F849C3B28F9BDFF97F81F0F9805DE66
:1050F0008B112FEF1F6D0A5ACF7E366DB709CB2764
:10510000663F464F2DEA5F9EC7BA27757BF1E5EBF8
:10511000F739073DEA92528AB15FFB6B085D8D1F3C
:10512000A6F810111111813FD561C119A0012ABF44
:105130007DFEB157E31DC73EEB9C2B8AE6E55ABEC8
:105140007CD5CF5A3AD9E53D6851000800000020CF
:105150008400000028010008EC51000884000020B1
:10516000A408000044010008020501050305040528
:105170000505000000000000000000000000000025
:10518000000000000000000000000000000000001F
:10519000000000000000000000000000000000000F
:1051A00000000000000000003333B340F4FDD43CA5
:1051B00024977F3C00000000000000000000000079
:1051C0000000003F0AD7A33B0AD7233C010101009E
:1051D00000000000000000000000000000000000CF
:0C51E00010000000010000000024F4009A
:04000005080000ED02
:00000001FF
