:020000040800F2
:10000000A00700208901000863180008871700086E
:10001000611800088F020008C91A000800000000DB
:100020000000000000000000000000006718000849
:100030002F03000800000000651800086918000878
:10004000A3010008A3010008A3010008A301000800
:10005000A3010008A3010008A3010008A3010008F0
:10006000A3010008A3010008A3010008A3010008E0
:10007000A3010008A3010008A3010008A3010008D0
:10008000A3010008A3010008A3010008A3010008C0
:10009000BD1A0008A3010008A3010008A30100087D
:1000A000A3010008A3010008A3010008A3010008A0
:1000B000A3010008A3010008A3010008A301000890
:1000C000A3010008A3010008A3010008A301000880
:1000D000A3010008B11A0008A3010008A301000849
:1000E000A3010008A3010008A301000800F002F822
:1000F00000F03AF80AA090E8000C82448344AAF188
:100100000107DA4501D100F02FF8AFF2090EBAE885
:100110000F0013F0010F18BFFB1A43F0010318473B
:10012000181F0000381F0000103A24BF78C878C19B
:10013000FAD8520724BF30C830C144BF04680C60ED
:10014000704700000023002400250026103A28BF35
:1001500078C1FBD8520728BF30C148BF0B60704739
:100160001FB51FBD10B510BD00F058F81146FFF7C0
:10017000F7FF01F0BBFC00F076F803B4FFF7F2FFE5
:1001800003BC00F07DF8000009488047094800479B
:10019000FEE7FEE7FEE7FEE7FEE7FEE7FEE7FEE737
:1001A000FEE7FEE704480549054A064B7047000094
:1001B000C9180008ED000008A0010020A0070020D9
:1001C000A0030020A00300204FF0000200B513465A
:1001D00094469646203922BFA0E80C50A0E80C5067
:1001E000B1F12001BFF4F7AF090728BFA0E80C5018
:1001F00048BF0CC05DF804EB890028BF40F8042B11
:1002000008BF704748BF20F8022B11F0804F18BF7D
:1002100000F8012B7047704770477047754600F033
:100220002BF8AE4605006946534620F00700854688
:1002300018B020B5FFF7B6FFBDE820404FF000062C
:100240004FF000074FF000084FF0000B21F00701BE
:10025000AC46ACE8C009ACE8C009ACE8C009ACE801
:10026000C0098D46704710B50446AFF300802046A4
:10027000BDE81040FFF781BF004870473C010020F7
:1002800001491820ABBEFEE7260002007047FEE7DA
:100290000C4A10B510600020D06011610A4B9060CC
:1002A000084903F11C02A1F16C0000F053F808B1F9
:1002B00072B6FEE703486C3800F09CF90328F9D1C8
:1002C00010BD0000D40000202C00002070B54FF0BD
:1002D000FF310170417000218170C17001710123F3
:1002E000437181710222C2710272417204258572CA
:1002F0000324C472037343738573C37304740526A4
:1003000046748274C1740621017542758275072195
:10031000C1750276457608218176C4760377092176
:1003200041778477C4770A2180F8201070BD704728
:1003300090F82020012A07D0022A05D0416A41F412
:100340008021416201207047006842690A4342618E
:1003500000207047F0B590F820500468A468012D83
:1003600005D0022D03D0416A41F4802153E014F0FE
:10037000406F01D1E5004BD5C4F30164022C03D9D1
:10038000416A41F4000146E00125A5401D608D68E9
:100390004FF4C0739DB1CE6835434E6845EAC6053B
:1003A000066803EB0417F5514FF4C275076805EBB7
:1003B00004150E697E51097D012905D009E00E88DA
:1003C000CD6845EA4655EBE701684E5946F480761C
:1003D0004E511179D2F805504FF4C67641EA052501
:1003E000016806EB04168D511178D2F801204FF404
:1003F000C47541EA0221026805EB041551510068F9
:1004000003EB0411425842F0010242500020F0BDBB
:10041000416A41F4001141620120F0BD10B590F82D
:1004200020300268012B07D0022B05D0416A41F42D
:1004300080214162012010BDD2F8000240F001008D
:10044000C2F80002087D00F01F0301209840D2F896
:100450001C328343C2F81C32CB69B3B9D2F80C32D8
:100460008343C2F80C328C894B6864F31F434C6998
:1004700002EBC404C4F840320C890B6864F31F43D8
:100480004C6902EBC404C4F84432CB69012B16D189
:10049000D2F80C320343C2F80C320C884B6864F378
:1004A0001F434C6902EBC404C4F840320C89CB688A
:1004B00064F31F434C6902EBC404C4F844328B69F3
:1004C000002BD2F804320FD053EA0003C2F80432F2
:1004D0000B69002BD2F8143208D00343C2F814324F
:1004E000096A012904D008E08343EFE78343F5E775
:1004F000D2F81C120143C2F81C12D2F8000220F0FC
:100500000100C2F80002002010BD704730B590F81D
:100510002040012C05D0022C03D0416A41F48021F7
:100520005DE00468002955D02469A40754D04FF435
:10053000D874056804EB01142D5915F00405956075
:1005400005682D594ED0ED08556005682C5904F00A
:100550000204D4604FF4DA74056804EB01142D59D9
:1005600005F00F05156105682D59C5F3072595613F
:1005700005682C59240C54614FF4DC72046802EBBA
:100580000112A4581C700468A458240A5C70046802
:10059000A458240C9C700468A258120EDA704FF410
:1005A000DE72046802EB0112A4581C710468A4589E
:1005B000240A5C710468A458240C9C710468A25835
:1005C000120EDA71006881B1016941F02001016108
:1005D000002030BDE468A8E7416A41F4001141629F
:1005E000012030BD6D0D1560AFE7C16841F02001FD
:1005F000C160EDE70246002092F82010012901D0E9
:1006000002290CD111688A68520100D501208A683C
:10061000120100D5401C8968C90000D5401C7047F4
:100620002DE9F05F0546006800244669D0F8049083
:100630008768D0F80CB0D0F810A0D0F81880F10777
:1006400048D0F90714D001218160B80703D52846A6
:1006500000F001FA0CE0780702D54FF4006407E0DF
:10066000380702D54FF4805402E0284600F0F2F932
:10067000F80516D529684FF480708860B80503D551
:10068000284600F0EAF90CE0780502D544F400545D
:1006900007E0380502D544F4804402E0284600F023
:1006A000DBF9F80316D529684FF480308860B80369
:1006B00003D5284600F0D3F90CE0780302D544F4C2
:1006C000004407E0380302D544F4803402E02846B1
:1006D00000F0C4F9300707D55FEACB6004D529687C
:1006E000102044F40074C86070074FF0080707D565
:1006F0005FEA0B7004D52868C760284600F05CF9F3
:10070000B00706D52868C068800702D0284600F0E8
:1007100055F9700607D55FEACA6004D5296810202C
:1007200044F480640861B00607D55FEA0A7004D516
:1007300028680761284600F05DF9F00606D52868AC
:100740000069800702D0284600F055F9B00308D5AB
:100750005FEAC96005D5296810204860284600F086
:100760004BF9F00307D55FEA097004D528684760A4
:10077000284600F075F9300446D55FEA497040D547
:10078000F00504D55FEAC87001D044F00104B0055B
:1007900004D55FEA887001D544F00204700504D5E1
:1007A0005FEA487001D544F00404300529D518F0FB
:1007B000700F26D008F07000402815D006DC1028F5
:1007C00009D020280AD0302816D10AE050280ED0AF
:1007D000602811D10EE044F008040DE044F010044C
:1007E0000AE044F0200407E044F0400404E044F050
:1007F000800401E044F480742868816921F070016C
:100800008161296804204860002C05D0686A204373
:1008100068622846FFF779FEBDE8F09F70B50400D6
:1008200003D094F8200010B104E0012070BD2046F0
:1008300000F082F82068016841F00101016000F0D9
:1008400087FA0546052604E000F082FA401B0A28D4
:1008500011D820684068C007F6D02068016821F0F0
:100860000201016000F074FA05460BE000F070FA36
:10087000401B0A2806D9606A40F40030606284F8A0
:100880002060D2E7206840688007EFD4207E0128EE
:10089000206801683DD021F080010160607E012860
:1008A0002068016838D021F040010160A07E012855
:1008B0002068016833D021F020010160E07E01282A
:1008C000206801682ED041F010010160207F0128CE
:1008D0002068016829D021F008010160607F0128AB
:1008E0002068016824D021F004010160D4E90201EC
:1008F0000843D4E90412114308436168491E0843C0
:100900002168C86100206062012084F82000002076
:1009100070BD41F08001C0E741F04001C5E741F002
:100920002001CAE721F01001CFE741F00801D4E728
:1009300041F00401D9E7000010B586B00021009114
:100940000191029103910068184988422CD11848FE
:10095000C16941F00071C161C16901F00071049188
:10096000816941F0040181618069124C00F004004A
:1009700004904FF4006000900120029069462046E8
:1009800000F0F0F8A01400900220019003200390E2
:100990006946204600F0E6F800221146142000F0D7
:1009A00043FA142000F032FA06B010BD0064004093
:1009B00000100240000801407047000010B50B4BCA
:1009C0000B4A0021FFF7A2FD00280ED10848074975
:1009D00002680648503843899A4201D10B788371E6
:1009E000038A9A4201D10978817110BD500000201C
:1009F000EC000020704770477047000070B5044657
:100A000090F82000012804D0606A40F40020606261
:100A100018E0022084F820002068016821F001011C
:100A2000016000F095F905460EE000BF00F090F976
:100A3000401B0A2808D9606A40F400306062052033
:100A400084F82000012070BD20684068C007EDD107
:100A5000606270BD7047704770477047704770475D
:100A6000704710B590F821100022022905D004210A
:100A7000816380F82020012010BD01680B6823F0FD
:100A80000E030B6001680B6823F001030B6090F804
:100A90004030C46B012101FA03F3636080F8211038
:100AA00080F82020104610BD10B590F821100024C9
:100AB000022903D00421816301243DE001680A6812
:100AC00022F00E020A6001680A6822F001020A6040
:100AD0001A4A0168914201D1012121E0174A1432DA
:100AE000914201D110211BE0144A2832914201D1D8
:100AF000891515E0114A3C32914201D189140FE069
:100B00000E4A5032914202D14FF4803108E00B4A34
:100B10006432914202D14FF4801101E04FF08071B4
:100B2000064A083A5160012180F82110002180F81E
:100B30002010416B01B18847204610BD08000240DB
:100B400070B5044600F004F90546601C02D0044864
:100B50000078044400F0FCF8401BA042FAD370BDBA
:100B6000580000202DE9F84FDFF8B891002409F172
:100B7000040A0AF1040B23460F270BF1040EC9E007
:100B80000125A5402A40AA427DD1674ED1F804C074
:100B9000ACEB0608B44532D014DCBCF1030F3AD0FC
:100BA00009DCBCF1000F2AD0BCF1010F1CD0BCF154
:100BB000020F31D11DE0BCF1110F17D0BCF1120FA3
:100BC0002AD119E0B8F5881F19D006DCB8F5803FA6
:100BD00015D0B8F5801F1FD111E0B8F5001F0ED059
:100BE000B8F5041F18D10AE0CB6815E0CB681B1DCF
:100BF00012E0CB6808330FE0CB680C330CE08B6855
:100C00002BB1012B4FF0080303D0456104E004230E
:100C100002E0056100E00023FF2A01D8064601E05A
:100C200000F104064FEA840501D9A5F12005D6F8A4
:100C3000008007FA05FC28EA0C0803FA05F548EAE3
:100C40000508C6F800804D68ED0062D5374DAE69E5
:100C500046F00106AE61AD6924F0030605F001051A
:100C60000095334D06EB050CDCF80850A607360F4F
:100C700007FA06F825EA0805DFF8B880404503D1F1
:100C80004FF0000817E044E0DFF8AC80404502D1A7
:100C90004FF001080FE0DFF8A480404502D14FF08B
:100CA000020808E0DFF89880404502D14FF00308C1
:100CB00001E04FF0040808FA06F848EA0508CCF805
:100CC00008804D68D9F80060ED034D4601D5164304
:100CD00000E096432E604D68DAF80060AD0355469B
:100CE00001D5164300E096432E604D68DBF80060A6
:100CF000ED025D4601D5164300E096432E604D6837
:100D0000DEF80060AD02754601D5164300E096435B
:100D10002E60641C0D682A46E5407FF431AFBDE8C3
:100D2000F88F000000040140000011100010024084
:100D30000000014000080140000C0140001001408B
:100D4000001401400AB1016170470904FBE700008B
:100D50000148806870470000580000200248816800
:100D6000027811448160704758000020074810B590
:100D7000016841F010010160032000F075F80F20B8
:100D800000F006F800F024F8002010BD002002401A
:100D900070B50D4D04464FF47A712878B1FBF0F030
:100DA0000A490968B1FBF0F000F0ECFA48B9102CE0
:100DB00007D200222146501E00F036F800206C6059
:100DC00070BD012070BD00005800002064000020AC
:100DD0000C4808B5816941F001018161816901F028
:100DE00001010091C16941F08051C161C06900F009
:100DF000805000900448416821F0E06141F00071AA
:100E0000416008BD0010024000000140002809DBDD
:100E100000F01F02012191404009800000F1E02014
:100E2000C0F8001170470000F0B40E4B1B680C4670
:100E3000C3F30223C3F10705042D00D90425191DAE
:100E4000072901D2002300E0DB1E012606FA05F186
:100E5000491E214099409E40761E16403143F0BC09
:100E600000F033BE0CED00E0064900F00702086810
:100E70004FF6FF03184040EA0220034A104308607F
:100E8000704700000CED00E00000FA052DE9F04786
:100E90000F46050061D0434E306800F00700B842AD
:100EA00009D2306820F0070038433060306800F025
:100EB0000700B84251D128683B4C810712D5400742
:100EC00003D5606840F4E06060602878000703D5CF
:100ED000606840F4605060606068A96820F0F000CD
:100EE000084360602878C00728D06868012810D0BF
:100EF0002168022810D0890700292EDA616821F0C4
:100F0000030101436160FFF723FF804641F2883906
:100F10000DE021688903EFE78901EDE7FFF718FF8E
:100F2000A0EB0801494502D90320BDE8F0876068BD
:100F3000696800F00C00B0EB810FEFD1306800F071
:100F40000700B8420BD9306820F007003843306002
:100F5000306800F00700B84201D00120E5E72878AA
:100F6000400705D56068E96820F4E06008436060E8
:100F70002878000706D56068296920F4605040EAA7
:100F8000C100606000F038F86168084AC1F30311DD
:100F9000515CC8400649086006480068FFF7F8FE43
:100FA0000020C2E70020024000100240202000087C
:100FB000640000205C00002004480549006849687E
:100FC000044AC1F30221515CC8407047640000200C
:100FD00000100240302000080448054900684968B4
:100FE000044AC1F3C221515CC8407047640000202C
:100FF000001002403020000812A185B00FC98DE812
:101000000F0014A0144A006804905168134801F0BE
:101010000C03042B10D0082B0ED1C1F38343C9035A
:101020001DF803000AD5516804AAC1F34041515C80
:101030000A4A5043B0FBF1F005B0704708494843F5
:10104000FAE7000002030405060708090A0B0C0D65
:101050000E0F1010010200000010024000127A0072
:1010600000093D002DE9F84F040070D02078C04DF4
:10107000C00749D06868C0F38100012807D06868BC
:10108000C0F38100022809D16868C00306D528682A
:10109000800339D560680028E7D035E06068B0F596
:1010A000803F0BD010B1B0F5A02F11D0286820F4EC
:1010B00080302860286820F4802002E0286840F40E
:1010C00080302860606890B1FFF742FE06460AE073
:1010D000286840F480202860F0E700BFFFF738FE62
:1010E000801B642873D828688003F7D50CE0FFF7CD
:1010F0002FFE064605E000BFFFF72AFE801B64288E
:10110000F0D828688003F7D420789A4E80074FF0F3
:1011100001094FF0000839D5686810F00C0F07D0AE
:101120006868C0F38100022809D16868C00306D44A
:101130002868800714D52069012808D110E02069AB
:10114000B0B1C6F80090FFF703FE074605E00AE1DC
:10115000FFF7FEFDC01B0228C4D828688007F7D51A
:101160002868616920F0F80040EAC10028600DE0BD
:10117000C6F80080FFF7ECFD074604E0FFF7E8FD46
:10118000C01B022823D828688007F7D420780007DE
:101190002CD57948A169D9B1C0F80090FFF7D8FDE6
:1011A000074604E0FFF7D4FDC01B02280FD8686A89
:1011B0008007F7D571484FF4FA510068B0FBF1F0A1
:1011C000009000BF0098411E0091FAD20EE080E02E
:1011D000C0F80080FFF7BCFD074604E0FFF7B8FD4C
:1011E000C01B022875D8686A8007F7D420784007AA
:1011F00060D5E8690027C00008D4E86940F0805055
:10120000E861E869012700F0805000905C480168BF
:10121000C90513D40168834641F480710160FFF76A
:1012200097FD824606E000BFFFF792FDA0EB0A00A3
:1012300064284ED8DBF80000C005F5D5E068012829
:101240000AD008B1052813D0286A20F001002862CE
:10125000286A20F0040002E0286A40F001002862B9
:10126000E06841F2883B98B1FFF772FD82460BE0DF
:10127000286A40F004002862EEE700BFFFF768FD2F
:10128000A0EB0A0159455AD8286A8007F6D50CE028
:10129000FFF75EFD824605E0FFF75AFDA0EB0A016D
:1012A00059454CD8286A8007F6D41FB1E86920F068
:1012B0008050E861E06988B36968C1F3810102295F
:1012C00044D00228C6F8608004D0FFF741FD0446F0
:1012D00038E034E0FFF73CFD074604E0FFF738FD57
:1012E000C01B02282BD828688001F7D4206AB0F5EB
:1012F000803F05D16868A16820F400300843686029
:10130000D4E908010843696821F47411084368604E
:10131000C6F86090FFF71CFD044606E025E000BF1C
:10132000FFF716FD001B022809D828688001F7D5B1
:101330001BE000BFFFF70CFD001B022802D90320B1
:10134000BDE8F88F28688001F4D40EE00128F7D0BA
:101350006868226A00F48031914204D1616A00F425
:101360007010884201D00120EAE70020E8E7000081
:10137000001002400000424280044242640000200B
:101380000070004010B5401EB0F1807F01D30120F5
:1013900010BD4FF0E02460610F21601700F095FB55
:1013A0000020A06107202061002010BD7047704719
:1013B000F8B5026804461068D168536910F00F0F41
:1013C0004FF0000553D003F0010601F49077374346
:1013D0005FD0C20705D0CA0503D5226C42F00102D6
:1013E0002264420705D5DA0703D0226C42F00202DC
:1013F0002264820705D5DA0703D0226C42F004028A
:101400002264020707D501F02002324303D0226C88
:1014100042F008022264226C002A34D0800604D5EF
:10142000880602D5204600F070FA20684069216CD9
:10143000C0F38010090700D430B3204600F04DFA05
:101440002068416949061BD5416921F0400141618D
:10145000A06BA8B158494163A06BFFF725FB00289A
:1014600011D0A06B416B01B0BDE8F0400847830686
:101470000FD58B060DD52046BDE8F84000F045BAE3
:101480002046FFF794FFF8BD2046FFF790FF256444
:10149000F8BD266B2023012E52D1C60650D5CE06AC
:1014A0004ED5106850680090506940062AD5A16B4F
:1014B000086840680004000CEAD0A68D8642E7D98F
:1014C000E0858869202818D0D06820F48070D0602A
:1014D0002068416921F0010141612068416921F0E2
:1014E0004001416184F83E3025632068C16821F0E5
:1014F0001001C160A06BFFF7B4FAA08DE18D401A16
:1015000081B219E0A08DE18D401A81B2E08D0028F2
:10151000BED00029BCD0D06820F49070D060206884
:10152000426922F00102426184F83E30256320685E
:10153000C26822F01002C2602046FFF737FFF8BDF4
:1015400005062BD50D0629D594F83D002128F6D1A6
:10155000A068B0F5805F01D12069B0B1206A411C5C
:101560002162216800784860E08C401E0004000C75
:10157000E084E4D12068C16821F08001C160206866
:10158000C16841F04001C160F8BD206A0088C0F325
:1015900008005060206A801C2062E5E74006F3D511
:1015A0004806F1D5D168204621F04001D16084F889
:1015B0003D3000F0E7F8F8BDCB18000870B5040026
:1015C00004D094F83D00002510B106E0012070BD64
:1015D00084F83C50204600F023F8242084F83D0095
:1015E0002068C16821F40051C160204600F0E8F98C
:1015F0002068016921F4904101612068416921F06E
:101600002A0141612068C16841F40051C16025642C
:10161000202084F83D0084F83E00002070BD0000CA
:1016200030B585B0002400940194029403940068BE
:10163000194988422DD11948816941F4804181615D
:10164000816901F480410491816941F00401816163
:101650008069134D00F0040004904FF40070009076
:10166000022001900320039069462846FFF77AFA8A
:101670002815CDE900040120029069462846FFF7AD
:1016800071FA002211462520FFF7CEFB2520FFF737
:10169000BDFB05B030BD0000003801400010024025
:1016A0000008014090F83E30202B0ED159B152B1C4
:1016B00090F83C30012B08D0012380F83C30002307
:1016C000036300F0D9B90120704702207047000081
:1016D00070B500682849884249D1284C0120284922
:1016E00060710C22A1F1A000FFF7DCFF04F11603EA
:1016F0009A1C951C2248A11C616406780E704178E2
:10170000217100214618B6786E54491C0229F9DB74
:101710001A491A31A163002145182D795D54491CDD
:101720000229F9DB154916312163002143189B7901
:101730005354491C0229F9DB1049104A18316163DE
:1017400000213C3243181B7A5354491C0429F9DB0D
:101750000021A1832079032809D1E08A80B2208565
:10176000012805D0022802D1608B6084A18370BD5E
:10177000608BA083618470BD0038014000000020B0
:10178000300100207047FEE770B518481649002464
:1017900001600821C0E901144FF44031C0E9034160
:1017A000090141610476012545768576C576047781
:1017B0004477FFF733F808B172B6FEE70B48A03064
:1017C00001460562C0E90445046044608460C46069
:1017D000C0E906454562A038FEF720FE002801D08A
:1017E00072B6FEE770BD0000006400406800002093
:1017F00070B586B0002418480094019402940394B4
:10180000816941F010018161816901F01001049149
:10181000816941F020018161816901F02001049119
:10182000816941F0040181618069012200F00400B6
:101830000A4E5503049029463046FFF783FA0120EB
:101840000095CDE901040220039069463046FFF778
:1018500089F906B070BD0000001002400010014080
:10186000FEE7FEE770477047FFF778BA30B58FB0F4
:1018700028216846FEF7A8FC14210AA8FEF7A4FC5C
:1018800001210804CDE900100024029402250491EE
:10189000CDE907504FF4E01009906846FFF7E2FBEE
:1018A00008B172B6FEE70F20CDE90A058020CDE928
:1018B0000C0402210AA80E94FFF7E8FA002801D0D0
:1018C00072B6FEE70FB030BD704710B5406A002118
:1018D000C185C184FFF76BFD10BD0168CA6822F4A1
:1018E0009072CA6001684A6922F001024A61016B84
:1018F000012904D10168CA6822F01002CA602021BF
:1019000080F83E1000210163704708B590F83E1042
:10191000222901D0022008BD82684FF480539A42E8
:1019200001D1016921B1816A9A421BD04AB10AE012
:101930000268816A5268C2F308020A80816A891CBF
:1019400008E0026972B10268526802F07F020A7010
:10195000816A491C8162C18D491E0904090CC18537
:1019600003D019E002685268F1E70168CA6822F002
:101970002002CA600168CA6822F48072CA600168E5
:101980004A6922F001024A61202180F83E10016B71
:10199000012903D0FFF79CFE002008BD0021016350
:1019A0000168CA6822F01002CA6001680A68D2069B
:1019B00002D50A6849680091818DFFF7F7FCEBE7D3
:1019C00070B5044600680169E26821F44051114392
:1019D00001612169A0680843616908432168CA68F8
:1019E00041F20C639A430243CA6020684169A269CC
:1019F00021F44071114341611E492068884202D19F
:101A0000FFF7EAFA01E0FFF7D7FA00EBC00101EBBC
:101A10000012606864218000B2FBF0F3B3FBF1F3C5
:101A20006FF018067343B2FBF0F5B2FBF0F605EB6E
:101A30008305322303EB0515B5FBF1F5B6FBF1F693
:101A400005F0F00505EB0615B2FBF0F6B2FBF0F081
:101A5000B0FBF1F06FF01802504306EB800003EB8F
:101A60000010B0FBF1F0216800F00F0028448860FE
:101A700070BD00000038014081628285C28500216E
:101A80000164222280F83E2080F83C100168CA6878
:101A900042F48072CA6001684A6942F001024A61F8
:101AA0000068C16841F02001C1600020704700005B
:101AB0000148FFF77DBC0000900000200148FEF7C0
:101AC000AFBD000068000020FEE70907090E0028EE
:101AD00004DB00F1E02080F80014704700F00F00F4
:101AE00000F1E02080F8141D7047000092B0FFF76D
:101AF0003DF9FFF7BBFEFFF77BFEFFF745FEFF4812
:101B0000FD49002401604FF4E131C0E901140C21CA
:101B1000C460C0E904418461C461FFF74FFD08B1AE
:101B200072B6FEE7F5482838FEF768FFF348022151
:101B30002838FEF7FDFB002201210220FFF774F98F
:101B40000220FFF763F9ED490C22A031EB48FFF7C3
:101B5000A9FD002000EB40056A4602EB4502401C4F
:101B6000147054705480A34614710628F2DB09A83F
:101B7000FEF7ACFBDFF888934E4699F80000E8B317
:101B8000B078F178884215D0DD4D01245F464835A4
:101B900003212C70B07868703079A870F089FEF756
:101BA00077FBB079A042F3D1641CB7710A2CEFDD4A
:101BB000B078F070706C00780128DDD1307903289E
:101BC00036D00228D8D1CE493C3191F90000401ED0
:101BD0000928D1D800200C1D0A5C2254401C04287E
:101BE000FADB86F801B000202156491E092902D8E7
:101BF0007178491C7170401C042800E002E0F3DB9E
:101C00000025ABE0BE4D0124483501212C70308900
:101C1000FEF73EFBB079A042F7D1641C0A2CF4DD3C
:101C20000120307041030022B648FFF78BF8A3E78C
:101C3000308D718D88420BD1B6F91C00B6F91E109B
:101C4000884205D1B6F92200B6F92410884293D013
:101C5000AB4D012448352C70B08B010A6970A87017
:101C6000308C010AE9702871708C010A6971A871C1
:101C70000721B089FEF70CFBB079A042EBD1641CC0
:101C800086F806B00A2CE6DD308D7085B08BF083C7
:101C9000708CB08470E76019615790F9010001EB16
:101CA000410100EB400209A883564756DB1BB3F104
:101CB000FF3F24D013B1012B35D110E0024408447A
:101CC00092F9012090F90100101A022802D0801C1C
:101CD00003D028E0A6F820B023E0B42020E002449E
:101CE000084492F9012090F90100101A012802D04D
:101CF000401C02D017E03C2012E0782010E00244A3
:101D0000084492F9012090F90100101A012802D02C
:101D1000401C03D007E06FF03B0001E06FF077005C
:101D20003084F08C7084764F4837605D3870B08BAB
:101D3000010A7970B870308C010AF9703871708CB2
:101D4000010A7971B8710721B089FEF7A1FA6057CD
:101D5000B1798842E9D186F806B06D1C7078401ED2
:101D6000854298DB0125B246DDE0654F6846403785
:101D700000217E5766825A4601EB410300EB430384
:101D8000491C1A705A705A801A710629F4DB06EB46
:101D900046030DF1240E03EB0E011EF803704FF005
:101DA000780CA7F101088DF8008049783C234E1E7D
:101DB0008DF80160ADF808C0ADF80230A1F1020C59
:101DC0004B1C8DF81270891C8DF80C707F1C8DF8DF
:101DD00006808DF813108DF80730B421ADF814107B
:101DE0008DF818708DF819606FF03B018DF80DC0FB
:101DF000ADF81A10ADF80E2049008DF81E70ADF840
:101E000020108DF81F300221A182002303EB430133
:101E100000EB410184F807B091F90070012200BF86
:101E200002EB420C1EF90C80764647450BD1B444B8
:101E300091F901809CF90160B04504D19CF80260E1
:101E40000E71032603E0E679761CE6710426521C27
:101E5000A6820A2AE4DDE2790A2A05D14FF0FF3290
:101E60000A704A704A800A715B1C062BCEDB244E36
:101E700000224FF0FF38403602EB4201002300EB16
:101E8000410100BF91F9047016F903C0674507D1FD
:101E900081F8008081F80180A1F8028081F8048037
:101EA0005B1C042BEEDB521C062AE5DB5FF0000610
:101EB00006EB4601684600EB410797F90400401E17
:101EC00009282CD8DFF8388008F14808397988F8D3
:101ED0000010A18B0A0A88F8012088F8021079887E
:101EE0000A0A88F8032088F80410618C0A0A88F826
:101EF000052088F8061007E0003801409000002017
:101F000000000020001001400721A089FEF7C0F961
:101F100097F90400A1798842D8D184F806B0761CDC
:101F2000062EC5DB6D1C9AF8010054468542FFF66B
:101F30001CAFDFF8E8A00DF1240C5044D4E90C25C7
:101F400010F9010CD4F8443000EB40061CF90610DF
:101F5000B2F9007060468F4206D13044B5F9007086
:101F600090F90100874202D01878012805D0012598
:101F7000606C0078012827D103E0A08A401CA08271
:101F8000E6E7A4F822B0254EA4F81CB0D846A4F881
:101F900020B0EFB208363770A08B010A7170B070B4
:101FA000208C010AF1703071608C010A7171B0717E
:101FB0000721A089FEF76CF9A079A842EBD16D1C2E
:101FC00084F806800A2DD3DD4FF47A70FEF7B8FD51
:101FD000A06BB0F90000C0F15A0000B200F10F018F
:101FE000A0831F2916D362780AEB020111F8012C95
:101FF0000A4908310A70020A4A708870208C020A65
:10200000CA700871608C020A4A7188710721A08920
:10201000FEF73EF90420A082AEE50000400000205B
:102020000000000000000000010203040607080988
:1020300000000000010203045820000800000020F6
:102040006800000028010008C02000086800002087
:1020500038070000440100080000000000000F00E5
:102060000105020503050405050500000000000048
:1020700000000000000000000000000000005F0001
:102080000000000000000000000000000000000050
:102090000000000000000000000000000000000040
:1020A0000000000000000000000000000000000030
:1020B0000100000010000000000000000024F400F7
:04000005080000ED02
:00000001FF
